{
  "_format": "hh-sol-artifact-1",
  "contractName": "BNPL",
  "sourceName": "contracts/BNPL.sol",
  "abi": [
    {
      "anonymous": false,
      "inputs": [
        {
          "indexed": true,
          "internalType": "address",
          "name": "adapter",
          "type": "address"
        }
      ],
      "name": "AdapterRemoved",
      "type": "event"
    },
    {
      "anonymous": false,
      "inputs": [
        {
          "indexed": true,
          "internalType": "address",
          "name": "adapter",
          "type": "address"
        }
      ],
      "name": "AdapterWhitelisted",
      "type": "event"
    },
    {
      "anonymous": false,
      "inputs": [
        {
          "indexed": true,
          "internalType": "address",
          "name": "adapter",
          "type": "address"
        },
        {
          "indexed": true,
          "internalType": "uint256",
          "name": "newFee",
          "type": "uint256"
        }
      ],
      "name": "FeeUpdated",
      "type": "event"
    },
    {
      "anonymous": false,
      "inputs": [
        {
          "indexed": false,
          "internalType": "uint8",
          "name": "version",
          "type": "uint8"
        }
      ],
      "name": "Initialized",
      "type": "event"
    },
    {
      "anonymous": false,
      "inputs": [
        {
          "indexed": true,
          "internalType": "address",
          "name": "previousOwner",
          "type": "address"
        },
        {
          "indexed": true,
          "internalType": "address",
          "name": "newOwner",
          "type": "address"
        }
      ],
      "name": "OwnershipTransferred",
      "type": "event"
    },
    {
      "inputs": [],
      "name": "WETH",
      "outputs": [
        {
          "internalType": "contract IWETH",
          "name": "",
          "type": "address"
        }
      ],
      "stateMutability": "view",
      "type": "function"
    },
    {
      "inputs": [],
      "name": "aaveAddressesProvider",
      "outputs": [
        {
          "internalType": "contract IAaveLendPoolAddressesProvider",
          "name": "",
          "type": "address"
        }
      ],
      "stateMutability": "view",
      "type": "function"
    },
    {
      "inputs": [
        {
          "internalType": "address",
          "name": "adapter",
          "type": "address"
        }
      ],
      "name": "addAdapter",
      "outputs": [],
      "stateMutability": "nonpayable",
      "type": "function"
    },
    {
      "inputs": [
        {
          "internalType": "address",
          "name": "adapter",
          "type": "address"
        },
        {
          "internalType": "uint256",
          "name": "borrowAmount",
          "type": "uint256"
        },
        {
          "internalType": "bytes",
          "name": "data",
          "type": "bytes"
        },
        {
          "components": [
            {
              "internalType": "uint8",
              "name": "v",
              "type": "uint8"
            },
            {
              "internalType": "bytes32",
              "name": "r",
              "type": "bytes32"
            },
            {
              "internalType": "bytes32",
              "name": "s",
              "type": "bytes32"
            }
          ],
          "internalType": "struct IBNPL.Sig",
          "name": "sig",
          "type": "tuple"
        }
      ],
      "name": "buy",
      "outputs": [],
      "stateMutability": "payable",
      "type": "function"
    },
    {
      "inputs": [],
      "name": "feeCollector",
      "outputs": [
        {
          "internalType": "address",
          "name": "",
          "type": "address"
        }
      ],
      "stateMutability": "view",
      "type": "function"
    },
    {
      "inputs": [],
      "name": "getAaveLendPool",
      "outputs": [
        {
          "internalType": "contract IAaveLendPool",
          "name": "",
          "type": "address"
        }
      ],
      "stateMutability": "view",
      "type": "function"
    },
    {
      "inputs": [
        {
          "internalType": "address",
          "name": "adapter",
          "type": "address"
        }
      ],
      "name": "getFee",
      "outputs": [
        {
          "internalType": "uint256",
          "name": "",
          "type": "uint256"
        }
      ],
      "stateMutability": "view",
      "type": "function"
    },
    {
      "inputs": [],
      "name": "getFeeCollector",
      "outputs": [
        {
          "internalType": "address",
          "name": "",
          "type": "address"
        }
      ],
      "stateMutability": "view",
      "type": "function"
    },
    {
      "inputs": [],
      "name": "getMetaFireLendPool",
      "outputs": [
        {
          "internalType": "contract ILendPool",
          "name": "",
          "type": "address"
        }
      ],
      "stateMutability": "view",
      "type": "function"
    },
    {
      "inputs": [
        {
          "internalType": "address",
          "name": "_aaveAddressesProvider",
          "type": "address"
        },
        {
          "internalType": "address",
          "name": "_metafireAddressesProvider",
          "type": "address"
        },
        {
          "internalType": "address",
          "name": "_feeCollector",
          "type": "address"
        },
        {
          "internalType": "address",
          "name": "_weth",
          "type": "address"
        }
      ],
      "name": "initialize",
      "outputs": [],
      "stateMutability": "nonpayable",
      "type": "function"
    },
    {
      "inputs": [
        {
          "internalType": "address",
          "name": "adapter",
          "type": "address"
        }
      ],
      "name": "isAdapterWhitelisted",
      "outputs": [
        {
          "internalType": "bool",
          "name": "",
          "type": "bool"
        }
      ],
      "stateMutability": "view",
      "type": "function"
    },
    {
      "inputs": [],
      "name": "metafireAddressesProvider",
      "outputs": [
        {
          "internalType": "contract ILendPoolAddressesProvider",
          "name": "",
          "type": "address"
        }
      ],
      "stateMutability": "view",
      "type": "function"
    },
    {
      "inputs": [
        {
          "internalType": "address",
          "name": "owner",
          "type": "address"
        }
      ],
      "name": "nonces",
      "outputs": [
        {
          "internalType": "uint256",
          "name": "",
          "type": "uint256"
        }
      ],
      "stateMutability": "view",
      "type": "function"
    },
    {
      "inputs": [],
      "name": "owner",
      "outputs": [
        {
          "internalType": "address",
          "name": "",
          "type": "address"
        }
      ],
      "stateMutability": "view",
      "type": "function"
    },
    {
      "inputs": [
        {
          "internalType": "address",
          "name": "adapter",
          "type": "address"
        }
      ],
      "name": "removeAdapter",
      "outputs": [],
      "stateMutability": "nonpayable",
      "type": "function"
    },
    {
      "inputs": [],
      "name": "renounceOwnership",
      "outputs": [],
      "stateMutability": "nonpayable",
      "type": "function"
    },
    {
      "inputs": [
        {
          "internalType": "address",
          "name": "_feeCollector",
          "type": "address"
        }
      ],
      "name": "setFeeCollector",
      "outputs": [],
      "stateMutability": "nonpayable",
      "type": "function"
    },
    {
      "inputs": [
        {
          "internalType": "address",
          "name": "newOwner",
          "type": "address"
        }
      ],
      "name": "transferOwnership",
      "outputs": [],
      "stateMutability": "nonpayable",
      "type": "function"
    },
    {
      "inputs": [
        {
          "internalType": "address",
          "name": "adapter",
          "type": "address"
        },
        {
          "internalType": "uint256",
          "name": "_newFee",
          "type": "uint256"
        }
      ],
      "name": "updateFee",
      "outputs": [],
      "stateMutability": "nonpayable",
      "type": "function"
    },
    {
      "inputs": [],
      "name": "viewCountWhitelistedAdapters",
      "outputs": [
        {
          "internalType": "uint256",
          "name": "",
          "type": "uint256"
        }
      ],
      "stateMutability": "view",
      "type": "function"
    },
    {
      "inputs": [
        {
          "internalType": "uint256",
          "name": "cursor",
          "type": "uint256"
        },
        {
          "internalType": "uint256",
          "name": "size",
          "type": "uint256"
        }
      ],
      "name": "viewWhitelistedAdapters",
      "outputs": [
        {
          "internalType": "address[]",
          "name": "",
          "type": "address[]"
        },
        {
          "internalType": "uint256",
          "name": "",
          "type": "uint256"
        }
      ],
      "stateMutability": "view",
      "type": "function"
    }
  ],
  "bytecode": "0x608060405234801561001057600080fd5b50611933806100206000396000f3fe60806040526004361061012a5760003560e01c806394be7197116100ab578063c5f066af1161006f578063c5f066af14610315578063efda92cb1461032a578063f2fde38b1461033f578063f6f38e7c1461035f578063f77beb631461038f578063f8c8765e146103bd57600080fd5b806394be719714610275578063a42dce8014610295578063ad5c4648146102b5578063b88c9148146102d5578063c415b95c146102f557600080fd5b806360d54d41116100f257806360d54d41146101df578063715018a6146101ff5780637ecebe00146102145780638b8ee669146102425780638da5cb5b1461025757600080fd5b80630316d0a51461012f57806308bfa40a1461016c5780630a5014991461018c57806312fde4b7146101a1578063585cd34b146101bf575b600080fd5b34801561013b57600080fd5b50609b5461014f906001600160a01b031681565b6040516001600160a01b0390911681526020015b60405180910390f35b34801561017857600080fd5b5060995461014f906001600160a01b031681565b61019f61019a366004611435565b6103dd565b005b3480156101ad57600080fd5b50609c546001600160a01b031661014f565b3480156101cb57600080fd5b5061019f6101da3660046114e1565b6106e7565b3480156101eb57600080fd5b5061019f6101fa3660046114e1565b61075b565b34801561020b57600080fd5b5061019f610854565b34801561022057600080fd5b5061023461022f3660046114e1565b610868565b604051908152602001610163565b34801561024e57600080fd5b5061014f610888565b34801561026357600080fd5b506033546001600160a01b031661014f565b34801561028157600080fd5b5061019f6102903660046114fe565b61090a565b3480156102a157600080fd5b5061019f6102b03660046114e1565b6109c3565b3480156102c157600080fd5b50609a5461014f906001600160a01b031681565b3480156102e157600080fd5b506102346102f03660046114e1565b610a5d565b34801561030157600080fd5b50609c5461014f906001600160a01b031681565b34801561032157600080fd5b50610234610aa4565b34801561033657600080fd5b5061014f610ab0565b34801561034b57600080fd5b5061019f61035a3660046114e1565b610af5565b34801561036b57600080fd5b5061037f61037a3660046114e1565b610b6e565b6040519015158152602001610163565b34801561039b57600080fd5b506103af6103aa36600461152a565b610b7b565b604051610163929190611590565b3480156103c957600080fd5b5061019f6103d83660046115b2565b610c70565b846103e9609782610dd7565b61040e5760405162461bcd60e51b81526004016104059061160e565b60405180910390fd5b610416610dfc565b341561049e57609a60009054906101000a90046001600160a01b03166001600160a01b031663d0e30db0346040518263ffffffff1660e01b81526004016000604051808303818588803b15801561046c57600080fd5b505af1158015610480573d6000803e3d6000fd5b5050609a5461049e93506001600160a01b0316915033905034610e56565b60995460408051630261bf8b60e01b815290516000926001600160a01b031691630261bf8b916004808301926020929190829003018186803b1580156104e357600080fd5b505afa1580156104f7573d6000803e3d6000fd5b505050506040513d601f19601f8201168201806040525081019061051b9190611645565b60408051600180825281830190925291925060009190602080830190803683375050609a5482519293506001600160a01b03169183915060009061056157610561611678565b6001600160a01b03929092166020928302919091019091015260408051600180825281830190925260009181602001602082028036833701905050905087816000815181106105b2576105b2611678565b60209081029190910101526040805160018082528183019092526000918160200160208202803683370190505090506000816000815181106105f6576105f6611678565b602002602001018181525050600088883389600001602081019061061a919061168e565b8a602001358b60400135604051602001610639969594939291906116b1565b60408051601f198184030181529082905263ab9c4b5d60e01b825291506001600160a01b0386169063ab9c4b5d90610682908e9088908890889060009089908290600401611796565b600060405180830381600087803b15801561069c57600080fd5b505af11580156106b0573d6000803e3d6000fd5b5050336000908152609d6020526040902080546001019055506106d09050565b50505050506106df6001606555565b505050505050565b6106ef610eb4565b806106fb609782610dd7565b6107175760405162461bcd60e51b81526004016104059061160e565b610722609783610f0e565b506040516001600160a01b038316907fdf980d21d8c7bb34800e668dbe003299093bac8e693614151d3c57f73f98a93d90600090a25050565b610763610eb4565b6001600160a01b0381166107b95760405162461bcd60e51b815260206004820181905260248201527f416461707465723a2063616e206e6f74206265206e756c6c20616464726573736044820152606401610405565b6107c4609782610dd7565b156108115760405162461bcd60e51b815260206004820152601c60248201527f416461707465723a20616c72656164792077686974656c6973746564000000006044820152606401610405565b61081c609782610f23565b506040516001600160a01b038216907fd40b16bd3ab008be19df6ad5a47d370194e08873c6580d7c77161b21c267b76790600090a250565b61085c610eb4565b6108666000610f38565b565b6001600160a01b0381166000908152609d60205260408120545b92915050565b60995460408051630261bf8b60e01b815290516000926001600160a01b031691630261bf8b916004808301926020929190829003018186803b1580156108cd57600080fd5b505afa1580156108e1573d6000803e3d6000fd5b505050506040513d601f19601f820116820180604052508101906109059190611645565b905090565b610912610eb4565b8161091e609782610dd7565b61093a5760405162461bcd60e51b81526004016104059061160e565b61271082111561097b5760405162461bcd60e51b815260206004820152600c60248201526b466565206f766572666c6f7760a01b6044820152606401610405565b6001600160a01b0383166000818152609e6020526040808220859055518492917f6f0eaf2c2f89fb4cfe96a1dee5e764d60b52c7f48aaa590f0850e308aa1b953a91a3505050565b6109cb610eb4565b6001600160a01b038116610a3b5760405162461bcd60e51b815260206004820152603160248201527f446f776e7061796d656e743a20666565436f6c6c6563746f722063616e206e6f60448201527074206265206e756c6c206164647265737360781b6064820152608401610405565b609c80546001600160a01b0319166001600160a01b0392909216919091179055565b600081610a6b609782610dd7565b610a875760405162461bcd60e51b81526004016104059061160e565b50506001600160a01b03166000908152609e602052604090205490565b60006109056097610f8a565b609b54604080516311ead9ef60e31b815290516000926001600160a01b031691638f56cf78916004808301926020929190829003018186803b1580156108cd57600080fd5b610afd610eb4565b6001600160a01b038116610b625760405162461bcd60e51b815260206004820152602660248201527f4f776e61626c653a206e6577206f776e657220697320746865207a65726f206160448201526564647265737360d01b6064820152608401610405565b610b6b81610f38565b50565b6000610882609783610dd7565b606060008284610b8b6097610f8a565b610b95919061182a565b811115610bb45784610ba76097610f8a565b610bb1919061182a565b90505b60008167ffffffffffffffff811115610bcf57610bcf611662565b604051908082528060200260200182016040528015610bf8578160200160208202803683370190505b50905060005b82811015610c5757610c1b610c138289611841565b609790610f94565b828281518110610c2d57610c2d611678565b6001600160a01b039092166020928302919091019091015280610c4f81611859565b915050610bfe565b5080610c638388611841565b9350935050509250929050565b600054610100900460ff1615808015610c905750600054600160ff909116105b80610caa5750303b158015610caa575060005460ff166001145b610d0d5760405162461bcd60e51b815260206004820152602e60248201527f496e697469616c697a61626c653a20636f6e747261637420697320616c72656160448201526d191e481a5b9a5d1a585b1a5e995960921b6064820152608401610405565b6000805460ff191660011790558015610d30576000805461ff0019166101001790555b610d38610fa0565b610d40610fcf565b609980546001600160a01b038088166001600160a01b031992831617909255609b8054878416908316179055609c8054868416908316179055609a8054928516929091169190911790558015610dd0576000805461ff0019169055604051600181527f7f26b83ff96e1f2b6a682f133852f6798a09c465da95921460cefb38474024989060200160405180910390a15b5050505050565b6001600160a01b038116600090815260018301602052604081205415155b9392505050565b60026065541415610e4f5760405162461bcd60e51b815260206004820152601f60248201527f5265656e7472616e637947756172643a207265656e7472616e742063616c6c006044820152606401610405565b6002606555565b604080516001600160a01b038416602482015260448082018490528251808303909101815260649091019091526020810180516001600160e01b031663a9059cbb60e01b179052610ea8908490610ffe565b505050565b6001606555565b6033546001600160a01b031633146108665760405162461bcd60e51b815260206004820181905260248201527f4f776e61626c653a2063616c6c6572206973206e6f7420746865206f776e65726044820152606401610405565b6000610df5836001600160a01b0384166110d0565b6000610df5836001600160a01b0384166111c3565b603380546001600160a01b038381166001600160a01b0319831681179093556040519116919082907f8be0079c531659141344cd1fd0a4f28419497f9722a3daafe3b4186f6b6457e090600090a35050565b6000610882825490565b6000610df58383611212565b600054610100900460ff16610fc75760405162461bcd60e51b815260040161040590611874565b61086661123c565b600054610100900460ff16610ff65760405162461bcd60e51b815260040161040590611874565b61086661126c565b6000611053826040518060400160405280602081526020017f5361666545524332303a206c6f772d6c6576656c2063616c6c206661696c6564815250856001600160a01b03166112939092919063ffffffff16565b805190915015610ea8578080602001905181019061107191906118bf565b610ea85760405162461bcd60e51b815260206004820152602a60248201527f5361666545524332303a204552433230206f7065726174696f6e20646964206e6044820152691bdd081cdd58d8d9595960b21b6064820152608401610405565b600081815260018301602052604081205480156111b95760006110f460018361182a565b85549091506000906111089060019061182a565b905081811461116d57600086600001828154811061112857611128611678565b906000526020600020015490508087600001848154811061114b5761114b611678565b6000918252602080832090910192909255918252600188019052604090208390555b855486908061117e5761117e6118e1565b600190038181906000526020600020016000905590558560010160008681526020019081526020016000206000905560019350505050610882565b6000915050610882565b600081815260018301602052604081205461120a57508154600181810184556000848152602080822090930184905584548482528286019093526040902091909155610882565b506000610882565b600082600001828154811061122957611229611678565b9060005260206000200154905092915050565b600054610100900460ff166112635760405162461bcd60e51b815260040161040590611874565b61086633610f38565b600054610100900460ff16610ead5760405162461bcd60e51b815260040161040590611874565b60606112a284846000856112aa565b949350505050565b60608247101561130b5760405162461bcd60e51b815260206004820152602660248201527f416464726573733a20696e73756666696369656e742062616c616e636520666f6044820152651c8818d85b1b60d21b6064820152608401610405565b600080866001600160a01b0316858760405161132791906118f7565b60006040518083038185875af1925050503d8060008114611364576040519150601f19603f3d011682016040523d82523d6000602084013e611369565b606091505b509150915061137a87838387611385565b979650505050505050565b606083156113f15782516113ea576001600160a01b0385163b6113ea5760405162461bcd60e51b815260206004820152601d60248201527f416464726573733a2063616c6c20746f206e6f6e2d636f6e74726163740000006044820152606401610405565b50816112a2565b6112a283838151156114065781518083602001fd5b8060405162461bcd60e51b81526004016104059190611913565b6001600160a01b0381168114610b6b57600080fd5b600080600080600085870360c081121561144e57600080fd5b863561145981611420565b955060208701359450604087013567ffffffffffffffff8082111561147d57600080fd5b818901915089601f83011261149157600080fd5b8135818111156114a057600080fd5b8a60208285010111156114b257600080fd5b6020929092019550909350506060605f19820112156114d057600080fd5b506060860190509295509295909350565b6000602082840312156114f357600080fd5b8135610df581611420565b6000806040838503121561151157600080fd5b823561151c81611420565b946020939093013593505050565b6000806040838503121561153d57600080fd5b50508035926020909101359150565b600081518084526020808501945080840160005b838110156115855781516001600160a01b031687529582019590820190600101611560565b509495945050505050565b6040815260006115a3604083018561154c565b90508260208301529392505050565b600080600080608085870312156115c857600080fd5b84356115d381611420565b935060208501356115e381611420565b925060408501356115f381611420565b9150606085013561160381611420565b939692955090935050565b60208082526018908201527f416461707465723a206e6f742077686974656c69737465640000000000000000604082015260600190565b60006020828403121561165757600080fd5b8151610df581611420565b634e487b7160e01b600052604160045260246000fd5b634e487b7160e01b600052603260045260246000fd5b6000602082840312156116a057600080fd5b813560ff81168114610df557600080fd5b60a081528560a0820152858760c0830137600060c08783018101919091526001600160a01b0395909516602082015260ff93909316604084015260608301919091526080820152601f909201601f191690910101919050565b600081518084526020808501945080840160005b838110156115855781518752958201959082019060010161171e565b60005b8381101561175557818101518382015260200161173d565b83811115611764576000848401525b50505050565b6000815180845261178281602086016020860161173a565b601f01601f19169290920160200192915050565b600060018060a01b03808a16835260e060208401526117b860e084018a61154c565b83810360408501526117ca818a61170a565b905083810360608501526117de818961170a565b9050818716608085015283810360a08501526117fa818761176a565b9250505061ffff831660c083015298975050505050505050565b634e487b7160e01b600052601160045260246000fd5b60008282101561183c5761183c611814565b500390565b6000821982111561185457611854611814565b500190565b600060001982141561186d5761186d611814565b5060010190565b6020808252602b908201527f496e697469616c697a61626c653a20636f6e7472616374206973206e6f74206960408201526a6e697469616c697a696e6760a81b606082015260800190565b6000602082840312156118d157600080fd5b81518015158114610df557600080fd5b634e487b7160e01b600052603160045260246000fd5b6000825161190981846020870161173a565b9190910192915050565b602081526000610df5602083018461176a56fea164736f6c6343000809000a",
  "linkReferences": {},
  "deployedLinkReferences": {}
}