{
  "_format": "hh-sol-artifact-1",
  "contractName": "MockChainlinkOracle",
  "sourceName": "contracts/mock/MockChainlinkOracle.sol",
  "abi": [
    {
      "inputs": [
        {
          "internalType": "uint8",
          "name": "decimals_",
          "type": "uint8"
        }
      ],
      "stateMutability": "nonpayable",
      "type": "constructor"
    },
    {
      "anonymous": false,
      "inputs": [
        {
          "indexed": true,
          "internalType": "int256",
          "name": "current",
          "type": "int256"
        },
        {
          "indexed": true,
          "internalType": "uint256",
          "name": "roundId",
          "type": "uint256"
        },
        {
          "indexed": false,
          "internalType": "uint256",
          "name": "updatedAt",
          "type": "uint256"
        }
      ],
      "name": "AnswerUpdated",
      "type": "event"
    },
    {
      "anonymous": false,
      "inputs": [
        {
          "indexed": true,
          "internalType": "uint256",
          "name": "roundId",
          "type": "uint256"
        },
        {
          "indexed": true,
          "internalType": "address",
          "name": "startedBy",
          "type": "address"
        },
        {
          "indexed": false,
          "internalType": "uint256",
          "name": "startedAt",
          "type": "uint256"
        }
      ],
      "name": "NewRound",
      "type": "event"
    },
    {
      "inputs": [],
      "name": "aggregator",
      "outputs": [
        {
          "internalType": "address",
          "name": "",
          "type": "address"
        }
      ],
      "stateMutability": "view",
      "type": "function"
    },
    {
      "inputs": [],
      "name": "decimals",
      "outputs": [
        {
          "internalType": "uint8",
          "name": "",
          "type": "uint8"
        }
      ],
      "stateMutability": "view",
      "type": "function"
    },
    {
      "inputs": [],
      "name": "description",
      "outputs": [
        {
          "internalType": "string",
          "name": "",
          "type": "string"
        }
      ],
      "stateMutability": "pure",
      "type": "function"
    },
    {
      "inputs": [
        {
          "internalType": "uint256",
          "name": "roundId",
          "type": "uint256"
        }
      ],
      "name": "getAnswer",
      "outputs": [
        {
          "internalType": "int256",
          "name": "",
          "type": "int256"
        }
      ],
      "stateMutability": "view",
      "type": "function"
    },
    {
      "inputs": [
        {
          "internalType": "uint80",
          "name": "_roundId",
          "type": "uint80"
        }
      ],
      "name": "getRoundData",
      "outputs": [
        {
          "internalType": "uint80",
          "name": "roundId",
          "type": "uint80"
        },
        {
          "internalType": "int256",
          "name": "answer",
          "type": "int256"
        },
        {
          "internalType": "uint256",
          "name": "startedAt",
          "type": "uint256"
        },
        {
          "internalType": "uint256",
          "name": "updatedAt",
          "type": "uint256"
        },
        {
          "internalType": "uint80",
          "name": "answeredInRound",
          "type": "uint80"
        }
      ],
      "stateMutability": "view",
      "type": "function"
    },
    {
      "inputs": [
        {
          "internalType": "uint256",
          "name": "roundId",
          "type": "uint256"
        }
      ],
      "name": "getTimestamp",
      "outputs": [
        {
          "internalType": "uint256",
          "name": "",
          "type": "uint256"
        }
      ],
      "stateMutability": "view",
      "type": "function"
    },
    {
      "inputs": [],
      "name": "latestAnswer",
      "outputs": [
        {
          "internalType": "int256",
          "name": "",
          "type": "int256"
        }
      ],
      "stateMutability": "view",
      "type": "function"
    },
    {
      "inputs": [],
      "name": "latestRound",
      "outputs": [
        {
          "internalType": "uint256",
          "name": "",
          "type": "uint256"
        }
      ],
      "stateMutability": "view",
      "type": "function"
    },
    {
      "inputs": [],
      "name": "latestRoundData",
      "outputs": [
        {
          "internalType": "uint80",
          "name": "roundId",
          "type": "uint80"
        },
        {
          "internalType": "int256",
          "name": "answer",
          "type": "int256"
        },
        {
          "internalType": "uint256",
          "name": "startedAt",
          "type": "uint256"
        },
        {
          "internalType": "uint256",
          "name": "updatedAt",
          "type": "uint256"
        },
        {
          "internalType": "uint80",
          "name": "answeredInRound",
          "type": "uint80"
        }
      ],
      "stateMutability": "view",
      "type": "function"
    },
    {
      "inputs": [],
      "name": "latestTimestamp",
      "outputs": [
        {
          "internalType": "uint256",
          "name": "",
          "type": "uint256"
        }
      ],
      "stateMutability": "view",
      "type": "function"
    },
    {
      "inputs": [
        {
          "internalType": "uint80",
          "name": "_roundId",
          "type": "uint80"
        },
        {
          "internalType": "int256",
          "name": "_answer",
          "type": "int256"
        },
        {
          "internalType": "uint256",
          "name": "_startedAt",
          "type": "uint256"
        },
        {
          "internalType": "uint256",
          "name": "_updatedAt",
          "type": "uint256"
        },
        {
          "internalType": "uint80",
          "name": "_answeredInRound",
          "type": "uint80"
        }
      ],
      "name": "mockAddAnswer",
      "outputs": [],
      "stateMutability": "nonpayable",
      "type": "function"
    },
    {
      "inputs": [],
      "name": "version",
      "outputs": [
        {
          "internalType": "uint256",
          "name": "",
          "type": "uint256"
        }
      ],
      "stateMutability": "pure",
      "type": "function"
    }
  ],
  "bytecode": "0x608060405234801561001057600080fd5b50604051610a2c380380610a2c83398101604081905261002f91610048565b6005805460ff191660ff92909216919091179055610070565b600060208284031215610059578081fd5b815160ff81168114610069578182fd5b9392505050565b6109ad8061007f6000396000f3fe608060405234801561001057600080fd5b50600436106100b45760003560e01c80637284e416116100715780637284e4161461011b5780638205bf6a146101355780639a6fc8f51461013d578063b5ab58dc14610184578063b633620c14610197578063feaf968c146101aa57600080fd5b80630cc6be4e146100b9578063245a7bfc146100ce578063313ce567146100e157806350d25bcd146100f657806354fd4d501461010c578063668a0f0214610113575b600080fd5b6100cc6100c73660046108b9565b6101b2565b005b6040513081526020015b60405180910390f35b60055460405160ff90911681526020016100d8565b6100fe610320565b6040519081526020016100d8565b60006100fe565b6100fe610366565b604080516020810182526000815290516100d89190610908565b6100fe6103d3565b61015061014b366004610898565b610408565b604080516001600160501b03968716815260208101959095528401929092526060830152909116608082015260a0016100d8565b6100fe610192366004610880565b6105c7565b6100fe6101a5366004610880565b61067c565b61015061071d565b60008054600180820183557f290decd9548b62a8d60345a988386fc84ba6bc95484008f6362f93160ef3e563600380840491909101805493829006600a90810261010090810a6001600160501b03818102199097168d881691820217909355845480860186557fb10e2d527612073b26eecdfd717e6a320cf44b4afac2b0732d9fcbe2b7fa0cf6018b9055600280548087019091557f405787fa12a823e0f2b7631cc41b3ba8828b3321ca811111fa75cd3aa3bb5ace018a9055835480860185557fc2575a0e9e593c00f959f8c92f12db2869c3395a3b0502d05e2516446f71f85b018990556004805495860181559096527f8a35acfbc15ff81a39ae7d344fd709f28e8600b4aa8c65c6b64bfe7fe36bd19b838504018054939094060290940a808402199091169285160291909117905560405183815285907f0559884fd3a460db3073b7fc896cc77986f16e378210ded43186175bf646fc5f9060200160405180910390a35050505050565b60008054819061033290600190610973565b90506001818154811061035557634e487b7160e01b600052603260045260246000fd5b906000526020600020015491505090565b60008054819061037890600190610973565b90506000818154811061039b57634e487b7160e01b600052603260045260246000fd5b9060005260206000209060039182820401919006600a029054906101000a90046001600160501b03166001600160501b031691505090565b6000805481906103e590600190610973565b90506003818154811061035557634e487b7160e01b600052603260045260246000fd5b60008060008060008060016000805490506104239190610973565b9050600080828154811061044757634e487b7160e01b600052603260045260246000fd5b9060005260206000209060039182820401919006600a029054906101000a90046001600160501b03166001600160501b0316886001600160501b03168361048e919061095b565b6104989190610973565b9050600081815481106104bb57634e487b7160e01b600052603260045260246000fd5b9060005260206000209060039182820401919006600a029054906101000a90046001600160501b03166001828154811061050557634e487b7160e01b600052603260045260246000fd5b90600052602060002001546002838154811061053157634e487b7160e01b600052603260045260246000fd5b90600052602060002001546003848154811061055d57634e487b7160e01b600052603260045260246000fd5b90600052602060002001546004858154811061058957634e487b7160e01b600052603260045260246000fd5b9060005260206000209060039182820401919006600a029054906101000a90046001600160501b031696509650965096509650505091939590929450565b6000805481906105d990600190610973565b905060008082815481106105fd57634e487b7160e01b600052603260045260246000fd5b9060005260206000209060039182820401919006600a029054906101000a90046001600160501b03166001600160501b0316848361063b919061095b565b6106459190610973565b90506001818154811061066857634e487b7160e01b600052603260045260246000fd5b906000526020600020015492505050919050565b60008054819061068e90600190610973565b905060008082815481106106b257634e487b7160e01b600052603260045260246000fd5b9060005260206000209060039182820401919006600a029054906101000a90046001600160501b03166001600160501b031684836106f0919061095b565b6106fa9190610973565b90506003818154811061066857634e487b7160e01b600052603260045260246000fd5b60008060008060008060016000805490506107389190610973565b90506000818154811061075b57634e487b7160e01b600052603260045260246000fd5b9060005260206000209060039182820401919006600a029054906101000a90046001600160501b0316600182815481106107a557634e487b7160e01b600052603260045260246000fd5b9060005260206000200154600283815481106107d157634e487b7160e01b600052603260045260246000fd5b9060005260206000200154600384815481106107fd57634e487b7160e01b600052603260045260246000fd5b90600052602060002001546004858154811061082957634e487b7160e01b600052603260045260246000fd5b9060005260206000209060039182820401919006600a029054906101000a90046001600160501b031695509550955095509550509091929394565b80356001600160501b038116811461087b57600080fd5b919050565b600060208284031215610891578081fd5b5035919050565b6000602082840312156108a9578081fd5b6108b282610864565b9392505050565b600080600080600060a086880312156108d0578081fd5b6108d986610864565b94506020860135935060408601359250606086013591506108fc60808701610864565b90509295509295909350565b6000602080835283518082850152825b8181101561093457858101830151858201604001528201610918565b818111156109455783604083870101525b50601f01601f1916929092016040019392505050565b6000821982111561096e5761096e61098a565b500190565b6000828210156109855761098561098a565b500390565b634e487b7160e01b600052601160045260246000fdfea164736f6c6343000804000a",
  "linkReferences": {},
  "deployedLinkReferences": {}
}