{
  "_format": "hh-sol-artifact-1",
  "contractName": "DebtToken",
  "sourceName": "contracts/protocol/DebtToken.sol",
  "abi": [
    {
      "anonymous": false,
      "inputs": [
        {
          "indexed": true,
          "internalType": "address",
          "name": "owner",
          "type": "address"
        },
        {
          "indexed": true,
          "internalType": "address",
          "name": "spender",
          "type": "address"
        },
        {
          "indexed": false,
          "internalType": "uint256",
          "name": "value",
          "type": "uint256"
        }
      ],
      "name": "Approval",
      "type": "event"
    },
    {
      "anonymous": false,
      "inputs": [
        {
          "indexed": true,
          "internalType": "address",
          "name": "fromUser",
          "type": "address"
        },
        {
          "indexed": true,
          "internalType": "address",
          "name": "toUser",
          "type": "address"
        },
        {
          "indexed": false,
          "internalType": "address",
          "name": "asset",
          "type": "address"
        },
        {
          "indexed": false,
          "internalType": "uint256",
          "name": "amount",
          "type": "uint256"
        }
      ],
      "name": "BorrowAllowanceDelegated",
      "type": "event"
    },
    {
      "anonymous": false,
      "inputs": [
        {
          "indexed": true,
          "internalType": "address",
          "name": "user",
          "type": "address"
        },
        {
          "indexed": false,
          "internalType": "uint256",
          "name": "amount",
          "type": "uint256"
        },
        {
          "indexed": false,
          "internalType": "uint256",
          "name": "index",
          "type": "uint256"
        }
      ],
      "name": "Burn",
      "type": "event"
    },
    {
      "anonymous": false,
      "inputs": [
        {
          "indexed": true,
          "internalType": "address",
          "name": "underlyingAsset",
          "type": "address"
        },
        {
          "indexed": true,
          "internalType": "address",
          "name": "pool",
          "type": "address"
        },
        {
          "indexed": false,
          "internalType": "address",
          "name": "incentivesController",
          "type": "address"
        },
        {
          "indexed": false,
          "internalType": "uint8",
          "name": "debtTokenDecimals",
          "type": "uint8"
        },
        {
          "indexed": false,
          "internalType": "string",
          "name": "debtTokenName",
          "type": "string"
        },
        {
          "indexed": false,
          "internalType": "string",
          "name": "debtTokenSymbol",
          "type": "string"
        }
      ],
      "name": "Initialized",
      "type": "event"
    },
    {
      "anonymous": false,
      "inputs": [
        {
          "indexed": false,
          "internalType": "uint8",
          "name": "version",
          "type": "uint8"
        }
      ],
      "name": "Initialized",
      "type": "event"
    },
    {
      "anonymous": false,
      "inputs": [
        {
          "indexed": true,
          "internalType": "address",
          "name": "from",
          "type": "address"
        },
        {
          "indexed": false,
          "internalType": "uint256",
          "name": "value",
          "type": "uint256"
        },
        {
          "indexed": false,
          "internalType": "uint256",
          "name": "index",
          "type": "uint256"
        }
      ],
      "name": "Mint",
      "type": "event"
    },
    {
      "anonymous": false,
      "inputs": [
        {
          "indexed": true,
          "internalType": "address",
          "name": "from",
          "type": "address"
        },
        {
          "indexed": true,
          "internalType": "address",
          "name": "to",
          "type": "address"
        },
        {
          "indexed": false,
          "internalType": "uint256",
          "name": "value",
          "type": "uint256"
        }
      ],
      "name": "Transfer",
      "type": "event"
    },
    {
      "inputs": [],
      "name": "POOL",
      "outputs": [
        {
          "internalType": "contract ILendPool",
          "name": "",
          "type": "address"
        }
      ],
      "stateMutability": "view",
      "type": "function"
    },
    {
      "inputs": [],
      "name": "UNDERLYING_ASSET_ADDRESS",
      "outputs": [
        {
          "internalType": "address",
          "name": "",
          "type": "address"
        }
      ],
      "stateMutability": "view",
      "type": "function"
    },
    {
      "inputs": [
        {
          "internalType": "address",
          "name": "owner",
          "type": "address"
        },
        {
          "internalType": "address",
          "name": "spender",
          "type": "address"
        }
      ],
      "name": "allowance",
      "outputs": [
        {
          "internalType": "uint256",
          "name": "",
          "type": "uint256"
        }
      ],
      "stateMutability": "view",
      "type": "function"
    },
    {
      "inputs": [
        {
          "internalType": "address",
          "name": "spender",
          "type": "address"
        },
        {
          "internalType": "uint256",
          "name": "amount",
          "type": "uint256"
        }
      ],
      "name": "approve",
      "outputs": [
        {
          "internalType": "bool",
          "name": "",
          "type": "bool"
        }
      ],
      "stateMutability": "nonpayable",
      "type": "function"
    },
    {
      "inputs": [
        {
          "internalType": "address",
          "name": "delegatee",
          "type": "address"
        },
        {
          "internalType": "uint256",
          "name": "amount",
          "type": "uint256"
        }
      ],
      "name": "approveDelegation",
      "outputs": [],
      "stateMutability": "nonpayable",
      "type": "function"
    },
    {
      "inputs": [
        {
          "internalType": "address",
          "name": "user",
          "type": "address"
        }
      ],
      "name": "balanceOf",
      "outputs": [
        {
          "internalType": "uint256",
          "name": "",
          "type": "uint256"
        }
      ],
      "stateMutability": "view",
      "type": "function"
    },
    {
      "inputs": [
        {
          "internalType": "address",
          "name": "fromUser",
          "type": "address"
        },
        {
          "internalType": "address",
          "name": "toUser",
          "type": "address"
        }
      ],
      "name": "borrowAllowance",
      "outputs": [
        {
          "internalType": "uint256",
          "name": "",
          "type": "uint256"
        }
      ],
      "stateMutability": "view",
      "type": "function"
    },
    {
      "inputs": [
        {
          "internalType": "address",
          "name": "user",
          "type": "address"
        },
        {
          "internalType": "uint256",
          "name": "amount",
          "type": "uint256"
        },
        {
          "internalType": "uint256",
          "name": "index",
          "type": "uint256"
        }
      ],
      "name": "burn",
      "outputs": [],
      "stateMutability": "nonpayable",
      "type": "function"
    },
    {
      "inputs": [],
      "name": "decimals",
      "outputs": [
        {
          "internalType": "uint8",
          "name": "",
          "type": "uint8"
        }
      ],
      "stateMutability": "view",
      "type": "function"
    },
    {
      "inputs": [
        {
          "internalType": "address",
          "name": "spender",
          "type": "address"
        },
        {
          "internalType": "uint256",
          "name": "subtractedValue",
          "type": "uint256"
        }
      ],
      "name": "decreaseAllowance",
      "outputs": [
        {
          "internalType": "bool",
          "name": "",
          "type": "bool"
        }
      ],
      "stateMutability": "nonpayable",
      "type": "function"
    },
    {
      "inputs": [],
      "name": "getIncentivesController",
      "outputs": [
        {
          "internalType": "contract IIncentivesController",
          "name": "",
          "type": "address"
        }
      ],
      "stateMutability": "view",
      "type": "function"
    },
    {
      "inputs": [
        {
          "internalType": "address",
          "name": "user",
          "type": "address"
        }
      ],
      "name": "getScaledUserBalanceAndSupply",
      "outputs": [
        {
          "internalType": "uint256",
          "name": "",
          "type": "uint256"
        },
        {
          "internalType": "uint256",
          "name": "",
          "type": "uint256"
        }
      ],
      "stateMutability": "view",
      "type": "function"
    },
    {
      "inputs": [
        {
          "internalType": "address",
          "name": "spender",
          "type": "address"
        },
        {
          "internalType": "uint256",
          "name": "addedValue",
          "type": "uint256"
        }
      ],
      "name": "increaseAllowance",
      "outputs": [
        {
          "internalType": "bool",
          "name": "",
          "type": "bool"
        }
      ],
      "stateMutability": "nonpayable",
      "type": "function"
    },
    {
      "inputs": [
        {
          "internalType": "contract ILendPoolAddressesProvider",
          "name": "addressProvider",
          "type": "address"
        },
        {
          "internalType": "address",
          "name": "underlyingAsset",
          "type": "address"
        },
        {
          "internalType": "uint8",
          "name": "debtTokenDecimals",
          "type": "uint8"
        },
        {
          "internalType": "string",
          "name": "debtTokenName",
          "type": "string"
        },
        {
          "internalType": "string",
          "name": "debtTokenSymbol",
          "type": "string"
        }
      ],
      "name": "initialize",
      "outputs": [],
      "stateMutability": "nonpayable",
      "type": "function"
    },
    {
      "inputs": [
        {
          "internalType": "address",
          "name": "initiator",
          "type": "address"
        },
        {
          "internalType": "address",
          "name": "onBehalfOf",
          "type": "address"
        },
        {
          "internalType": "uint256",
          "name": "amount",
          "type": "uint256"
        },
        {
          "internalType": "uint256",
          "name": "index",
          "type": "uint256"
        }
      ],
      "name": "mint",
      "outputs": [
        {
          "internalType": "bool",
          "name": "",
          "type": "bool"
        }
      ],
      "stateMutability": "nonpayable",
      "type": "function"
    },
    {
      "inputs": [],
      "name": "name",
      "outputs": [
        {
          "internalType": "string",
          "name": "",
          "type": "string"
        }
      ],
      "stateMutability": "view",
      "type": "function"
    },
    {
      "inputs": [
        {
          "internalType": "address",
          "name": "user",
          "type": "address"
        }
      ],
      "name": "scaledBalanceOf",
      "outputs": [
        {
          "internalType": "uint256",
          "name": "",
          "type": "uint256"
        }
      ],
      "stateMutability": "view",
      "type": "function"
    },
    {
      "inputs": [],
      "name": "scaledTotalSupply",
      "outputs": [
        {
          "internalType": "uint256",
          "name": "",
          "type": "uint256"
        }
      ],
      "stateMutability": "view",
      "type": "function"
    },
    {
      "inputs": [],
      "name": "symbol",
      "outputs": [
        {
          "internalType": "string",
          "name": "",
          "type": "string"
        }
      ],
      "stateMutability": "view",
      "type": "function"
    },
    {
      "inputs": [],
      "name": "totalSupply",
      "outputs": [
        {
          "internalType": "uint256",
          "name": "",
          "type": "uint256"
        }
      ],
      "stateMutability": "view",
      "type": "function"
    },
    {
      "inputs": [
        {
          "internalType": "address",
          "name": "recipient",
          "type": "address"
        },
        {
          "internalType": "uint256",
          "name": "amount",
          "type": "uint256"
        }
      ],
      "name": "transfer",
      "outputs": [
        {
          "internalType": "bool",
          "name": "",
          "type": "bool"
        }
      ],
      "stateMutability": "nonpayable",
      "type": "function"
    },
    {
      "inputs": [
        {
          "internalType": "address",
          "name": "sender",
          "type": "address"
        },
        {
          "internalType": "address",
          "name": "recipient",
          "type": "address"
        },
        {
          "internalType": "uint256",
          "name": "amount",
          "type": "uint256"
        }
      ],
      "name": "transferFrom",
      "outputs": [
        {
          "internalType": "bool",
          "name": "",
          "type": "bool"
        }
      ],
      "stateMutability": "nonpayable",
      "type": "function"
    }
  ],
  "bytecode": "0x608060405234801561001057600080fd5b5061172f806100206000396000f3fe608060405234801561001057600080fd5b50600436106101425760003560e01c806375d26413116100b8578063b1bf962d1161007c578063b1bf962d146102c9578063b3f1c93d146102d1578063c04a8a10146102e4578063dd62ed3e146102f9578063f5298aca14610307578063f85f6f741461031a57600080fd5b806375d264131461029a57806395d89b41146102a2578063a457c2d71461021b578063a9059cbb146102aa578063b16a19de146102b857600080fd5b806323b872dd1161010a57806323b872dd146101f3578063313ce56714610206578063395093511461021b5780636bd76d241461022e57806370a08231146102675780637535d2461461027a57600080fd5b806306fdde0314610147578063095ea7b3146101655780630afbcdc91461018857806318160ddd146101ca5780631da24f3e146101e0575b600080fd5b61014f61032d565b60405161015c91906115b7565b60405180910390f35b61017861017336600461140d565b6103bf565b604051901515815260200161015c565b6101b5610196366004611318565b6001600160a01b03166000908152603360205260409020546035549091565b6040805192835260208301919091520161015c565b6101d2610408565b60405190815260200161015c565b6101d26101ee366004611318565b6104a6565b610178610201366004611388565b6104c6565b60655460405160ff909116815260200161015c565b61017861022936600461140d565b61050a565b6101d261023c366004611350565b6001600160a01b03918216600090815260956020908152604080832093909416825291909152205490565b6101d2610275366004611318565b610555565b610282610619565b6040516001600160a01b03909116815260200161015c565b610282610628565b61014f610632565b61017861020136600461140d565b6094546001600160a01b0316610282565b6101d2610641565b6101786102df3660046113c8565b61064c565b6102f76102f236600461140d565b6107b1565b005b6101d2610229366004611350565b6102f7610315366004611438565b61081d565b6102f761032836600461146c565b61093f565b60606036805461033c90611683565b80601f016020809104026020016040519081016040528092919081815260200182805461036890611683565b80156103b55780601f1061038a576101008083540402835291602001916103b5565b820191906000526020600020905b81548152906001019060200180831161039857829003601f168201915b5050505050905090565b60405162461bcd60e51b81526020600482015260166024820152751054141493d5905317d393d517d4d5541413d495115160521b60448201526000906064015b60405180910390fd5b600080610413610ae7565b60945460405163386497fd60e01b81526001600160a01b0391821660048201529192506104a0919083169063386497fd9060240160206040518083038186803b15801561045f57600080fd5b505afa158015610473573d6000803e3d6000fd5b505050506040513d601f19601f82011682018060405250810190610497919061150a565b60355490610b64565b91505090565b6001600160a01b0381166000908152603360205260408120545b92915050565b60405162461bcd60e51b81526020600482015260166024820152751514905394d1915497d393d517d4d5541413d495115160521b60448201526000906064016103ff565b60405162461bcd60e51b815260206004820152601760248201527f414c4c4f57414e43455f4e4f545f535550504f5254454400000000000000000060448201526000906064016103ff565b6001600160a01b0381166000908152603360205260408120548061057c5750600092915050565b6000610586610ae7565b60945460405163386497fd60e01b81526001600160a01b039182166004820152919250610611919083169063386497fd9060240160206040518083038186803b1580156105d257600080fd5b505afa1580156105e6573d6000803e3d6000fd5b505050506040513d601f19601f8201168201806040525081019061060a919061150a565b8390610b64565b949350505050565b6000610623610ae7565b905090565b6000610623610c27565b60606037805461033c90611683565b600061062360355490565b6000610656610ae7565b6001600160a01b0316336001600160a01b0316146040518060400160405280600381526020016203530360ec1b815250906106a45760405162461bcd60e51b81526004016103ff91906115b7565b50836001600160a01b0316856001600160a01b0316146106c9576106c9848685610c6c565b6001600160a01b038416600090815260336020526040812054906106ed8585610d8c565b60408051808201909152600381526235303160e81b6020820152909150816107285760405162461bcd60e51b81526004016103ff91906115b7565b506107338682610e64565b6040518581526001600160a01b038716906000906000805160206117038339815191529060200160405180910390a360408051868152602081018690526001600160a01b038816917f4c209b5fc8ad50758f13e2e1088ba56a560dff690a1c6fef26394f4c03821c4f910160405180910390a2501595945050505050565b3360008181526095602090815260408083206001600160a01b03878116808652918452938290208690556094548251941684529183018590529092917fda919360433220e13b51e8c211e490d148e61a3bd53de8c097194e458b97f3e191015b60405180910390a35050565b610825610ae7565b6001600160a01b0316336001600160a01b0316146040518060400160405280600381526020016203530360ec1b815250906108735760405162461bcd60e51b81526004016103ff91906115b7565b5060006108808383610d8c565b6040805180820190915260038152621a981960e91b6020820152909150816108bb5760405162461bcd60e51b81526004016103ff91906115b7565b506108c68482610f30565b6040518381526000906001600160a01b038616906000805160206117038339815191529060200160405180910390a360408051848152602081018490526001600160a01b038616917f49995e5dd6158cf69ad3e9777c46755a1a826a446c6416992167462dad033b2a910160405180910390a250505050565b600054610100900460ff161580801561095f5750600054600160ff909116105b806109795750303b158015610979575060005460ff166001145b6109dc5760405162461bcd60e51b815260206004820152602e60248201527f496e697469616c697a61626c653a20636f6e747261637420697320616c72656160448201526d191e481a5b9a5d1a585b1a5e995960921b60648201526084016103ff565b6000805460ff1916600117905580156109ff576000805461ff0019166101001790555b610a0a838386610f6a565b609480546001600160a01b038088166001600160a01b0319928316179092556093805492891692909116919091179055610a42610ae7565b6001600160a01b0316856001600160a01b03167f2b87020d41382092152097e8031f79ba219d9a1bb850d6805c6f9c451dadf153610a7e610c27565b878787604051610a91949392919061156d565b60405180910390a38015610adf576000805461ff0019169055604051600181527f7f26b83ff96e1f2b6a682f133852f6798a09c465da95921460cefb38474024989060200160405180910390a15b505050505050565b609354604080516311ead9ef60e31b815290516000926001600160a01b031691638f56cf78916004808301926020929190829003018186803b158015610b2c57600080fd5b505afa158015610b40573d6000803e3d6000fd5b505050506040513d601f19601f820116820180604052508101906106239190611334565b6000821580610b71575081155b15610b7e575060006104c0565b81610b9660026b033b2e3c9fd0803ce800000061162d565b610ba29060001961166c565b610bac919061162d565b8311156040518060400160405280600381526020016203230360ec1b81525090610be95760405162461bcd60e51b81526004016103ff91906115b7565b506b033b2e3c9fd0803ce8000000610c0260028261162d565b610c0c848661164d565b610c169190611615565b610c20919061162d565b9392505050565b609354604080516375d2641360e01b815290516000926001600160a01b0316916375d26413916004808301926020929190829003018186803b158015610b2c57600080fd5b6001600160a01b038084166000908152609560209081526040808320938616835292815290829020548251808401909352600383526235303360e81b91830191909152821115610ccf5760405162461bcd60e51b81526004016103ff91906115b7565b506001600160a01b038084166000908152609560209081526040808320938616835292905290812054610d0390839061166c565b6001600160a01b038086166000818152609560209081526040808320948916808452949091529020839055919250907fda919360433220e13b51e8c211e490d148e61a3bd53de8c097194e458b97f3e1610d656094546001600160a01b031690565b604080516001600160a01b039092168252602082018690520160405180910390a350505050565b60408051808201909152600381526219181960e91b602082015260009082610dc75760405162461bcd60e51b81526004016103ff91906115b7565b506000610dd560028461162d565b90506b033b2e3c9fd0803ce8000000610df08260001961166c565b610dfa919061162d565b8411156040518060400160405280600381526020016203230360ec1b81525090610e375760405162461bcd60e51b81526004016103ff91906115b7565b508281610e506b033b2e3c9fd0803ce80000008761164d565b610e5a9190611615565b610611919061162d565b6000610e6f60355490565b90506000610e92846001600160a01b031660009081526033602052604090205490565b9050610e9e8484610fb3565b6000610ea8610c27565b6001600160a01b031614610f2a57610ebe610c27565b6040516318c39f1760e11b81526001600160a01b038681166004830152602482018590526044820184905291909116906331873e2e90606401600060405180830381600087803b158015610f1157600080fd5b505af1158015610f25573d6000803e3d6000fd5b505050505b50505050565b6000610f3b60355490565b90506000610f5e846001600160a01b031660009081526033602052604090205490565b9050610e9e848461105f565b600054610100900460ff16610f915760405162461bcd60e51b81526004016103ff906115ca565b610f9b8383611182565b6065805460ff191660ff929092169190911790555050565b6001600160a01b0382166110095760405162461bcd60e51b815260206004820152601f60248201527f45524332303a206d696e7420746f20746865207a65726f20616464726573730060448201526064016103ff565b806035600082825461101b9190611615565b90915550506001600160a01b0382166000818152603360209081526040808320805486019055518481526000805160206117038339815191529101610811565b5050565b6001600160a01b0382166110bf5760405162461bcd60e51b815260206004820152602160248201527f45524332303a206275726e2066726f6d20746865207a65726f206164647265736044820152607360f81b60648201526084016103ff565b6001600160a01b038216600090815260336020526040902054818110156111335760405162461bcd60e51b815260206004820152602260248201527f45524332303a206275726e20616d6f756e7420657863656564732062616c616e604482015261636560f01b60648201526084016103ff565b6001600160a01b0383166000818152603360209081526040808320868603905560358054879003905551858152919291600080516020611703833981519152910160405180910390a35b505050565b600054610100900460ff166111a95760405162461bcd60e51b81526004016103ff906115ca565b61105b8282600054610100900460ff166111d55760405162461bcd60e51b81526004016103ff906115ca565b81516111e89060369060208501906111f8565b50805161117d9060379060208401905b82805461120490611683565b90600052602060002090601f016020900481019282611226576000855561126c565b82601f1061123f57805160ff191683800117855561126c565b8280016001018555821561126c579182015b8281111561126c578251825591602001919060010190611251565b5061127892915061127c565b5090565b5b80821115611278576000815560010161127d565b600082601f8301126112a1578081fd5b813567ffffffffffffffff808211156112bc576112bc6116d4565b604051601f8301601f19908116603f011681019082821181831017156112e4576112e46116d4565b816040528381528660208588010111156112fc578485fd5b8360208701602083013792830160200193909352509392505050565b600060208284031215611329578081fd5b8135610c20816116ea565b600060208284031215611345578081fd5b8151610c20816116ea565b60008060408385031215611362578081fd5b823561136d816116ea565b9150602083013561137d816116ea565b809150509250929050565b60008060006060848603121561139c578081fd5b83356113a7816116ea565b925060208401356113b7816116ea565b929592945050506040919091013590565b600080600080608085870312156113dd578081fd5b84356113e8816116ea565b935060208501356113f8816116ea565b93969395505050506040820135916060013590565b6000806040838503121561141f578182fd5b823561142a816116ea565b946020939093013593505050565b60008060006060848603121561144c578283fd5b8335611457816116ea565b95602085013595506040909401359392505050565b600080600080600060a08688031215611483578081fd5b853561148e816116ea565b9450602086013561149e816116ea565b9350604086013560ff811681146114b3578182fd5b9250606086013567ffffffffffffffff808211156114cf578283fd5b6114db89838a01611291565b935060808801359150808211156114f0578283fd5b506114fd88828901611291565b9150509295509295909350565b60006020828403121561151b578081fd5b5051919050565b60008151808452815b818110156115475760208185018101518683018201520161152b565b818111156115585782602083870101525b50601f01601f19169290920160200192915050565b6001600160a01b038516815260ff8416602082015260806040820181905260009061159a90830185611522565b82810360608401526115ac8185611522565b979650505050505050565b602081526000610c206020830184611522565b6020808252602b908201527f496e697469616c697a61626c653a20636f6e7472616374206973206e6f74206960408201526a6e697469616c697a696e6760a81b606082015260800190565b60008219821115611628576116286116be565b500190565b60008261164857634e487b7160e01b81526012600452602481fd5b500490565b6000816000190483118215151615611667576116676116be565b500290565b60008282101561167e5761167e6116be565b500390565b600181811c9082168061169757607f821691505b602082108114156116b857634e487b7160e01b600052602260045260246000fd5b50919050565b634e487b7160e01b600052601160045260246000fd5b634e487b7160e01b600052604160045260246000fd5b6001600160a01b03811681146116ff57600080fd5b5056feddf252ad1be2c89b69c2b068fc378daa952ba7f163c4a11628f55a4df523b3efa164736f6c6343000804000a",
  "linkReferences": {},
  "deployedLinkReferences": {}
}