{
  "_format": "hh-sol-artifact-1",
  "contractName": "LendPoolLoan",
  "sourceName": "contracts/protocol/LendPoolLoan.sol",
  "abi": [
    {
      "anonymous": false,
      "inputs": [
        {
          "indexed": true,
          "internalType": "address",
          "name": "pool",
          "type": "address"
        }
      ],
      "name": "Initialized",
      "type": "event"
    },
    {
      "anonymous": false,
      "inputs": [
        {
          "indexed": false,
          "internalType": "uint8",
          "name": "version",
          "type": "uint8"
        }
      ],
      "name": "Initialized",
      "type": "event"
    },
    {
      "anonymous": false,
      "inputs": [
        {
          "indexed": true,
          "internalType": "address",
          "name": "user",
          "type": "address"
        },
        {
          "indexed": true,
          "internalType": "uint256",
          "name": "loanId",
          "type": "uint256"
        },
        {
          "indexed": false,
          "internalType": "address",
          "name": "nftAsset",
          "type": "address"
        },
        {
          "indexed": false,
          "internalType": "uint256",
          "name": "nftTokenId",
          "type": "uint256"
        },
        {
          "indexed": false,
          "internalType": "uint256",
          "name": "amount",
          "type": "uint256"
        },
        {
          "indexed": false,
          "internalType": "uint256",
          "name": "borrowIndex",
          "type": "uint256"
        },
        {
          "indexed": false,
          "internalType": "address",
          "name": "bidder",
          "type": "address"
        },
        {
          "indexed": false,
          "internalType": "uint256",
          "name": "price",
          "type": "uint256"
        },
        {
          "indexed": false,
          "internalType": "address",
          "name": "previousBidder",
          "type": "address"
        },
        {
          "indexed": false,
          "internalType": "uint256",
          "name": "previousPrice",
          "type": "uint256"
        }
      ],
      "name": "LoanAuctioned",
      "type": "event"
    },
    {
      "anonymous": false,
      "inputs": [
        {
          "indexed": true,
          "internalType": "address",
          "name": "user",
          "type": "address"
        },
        {
          "indexed": true,
          "internalType": "address",
          "name": "onBehalfOf",
          "type": "address"
        },
        {
          "indexed": true,
          "internalType": "uint256",
          "name": "loanId",
          "type": "uint256"
        },
        {
          "indexed": false,
          "internalType": "address",
          "name": "nftAsset",
          "type": "address"
        },
        {
          "indexed": false,
          "internalType": "uint256",
          "name": "nftTokenId",
          "type": "uint256"
        },
        {
          "indexed": false,
          "internalType": "address",
          "name": "reserveAsset",
          "type": "address"
        },
        {
          "indexed": false,
          "internalType": "uint256",
          "name": "amount",
          "type": "uint256"
        },
        {
          "indexed": false,
          "internalType": "uint256",
          "name": "borrowIndex",
          "type": "uint256"
        }
      ],
      "name": "LoanCreated",
      "type": "event"
    },
    {
      "anonymous": false,
      "inputs": [
        {
          "indexed": true,
          "internalType": "address",
          "name": "user",
          "type": "address"
        },
        {
          "indexed": true,
          "internalType": "uint256",
          "name": "loanId",
          "type": "uint256"
        },
        {
          "indexed": false,
          "internalType": "address",
          "name": "nftAsset",
          "type": "address"
        },
        {
          "indexed": false,
          "internalType": "uint256",
          "name": "nftTokenId",
          "type": "uint256"
        },
        {
          "indexed": false,
          "internalType": "address",
          "name": "reserveAsset",
          "type": "address"
        },
        {
          "indexed": false,
          "internalType": "uint256",
          "name": "amount",
          "type": "uint256"
        },
        {
          "indexed": false,
          "internalType": "uint256",
          "name": "borrowIndex",
          "type": "uint256"
        }
      ],
      "name": "LoanLiquidated",
      "type": "event"
    },
    {
      "anonymous": false,
      "inputs": [
        {
          "indexed": true,
          "internalType": "address",
          "name": "user",
          "type": "address"
        },
        {
          "indexed": true,
          "internalType": "uint256",
          "name": "loanId",
          "type": "uint256"
        },
        {
          "indexed": false,
          "internalType": "address",
          "name": "nftAsset",
          "type": "address"
        },
        {
          "indexed": false,
          "internalType": "uint256",
          "name": "nftTokenId",
          "type": "uint256"
        },
        {
          "indexed": false,
          "internalType": "uint256",
          "name": "amount",
          "type": "uint256"
        },
        {
          "indexed": false,
          "internalType": "uint256",
          "name": "borrowIndex",
          "type": "uint256"
        },
        {
          "indexed": false,
          "internalType": "address",
          "name": "buyer",
          "type": "address"
        },
        {
          "indexed": false,
          "internalType": "uint256",
          "name": "price",
          "type": "uint256"
        }
      ],
      "name": "LoanLiquidatingBought",
      "type": "event"
    },
    {
      "anonymous": false,
      "inputs": [
        {
          "indexed": true,
          "internalType": "address",
          "name": "user",
          "type": "address"
        },
        {
          "indexed": true,
          "internalType": "uint256",
          "name": "loanId",
          "type": "uint256"
        },
        {
          "indexed": false,
          "internalType": "address",
          "name": "nftAsset",
          "type": "address"
        },
        {
          "indexed": false,
          "internalType": "uint256",
          "name": "nftTokenId",
          "type": "uint256"
        },
        {
          "indexed": false,
          "internalType": "address",
          "name": "reserveAsset",
          "type": "address"
        },
        {
          "indexed": false,
          "internalType": "uint256",
          "name": "amountTaken",
          "type": "uint256"
        },
        {
          "indexed": false,
          "internalType": "uint256",
          "name": "borrowIndex",
          "type": "uint256"
        }
      ],
      "name": "LoanRedeemed",
      "type": "event"
    },
    {
      "anonymous": false,
      "inputs": [
        {
          "indexed": true,
          "internalType": "address",
          "name": "user",
          "type": "address"
        },
        {
          "indexed": true,
          "internalType": "uint256",
          "name": "loanId",
          "type": "uint256"
        },
        {
          "indexed": false,
          "internalType": "address",
          "name": "nftAsset",
          "type": "address"
        },
        {
          "indexed": false,
          "internalType": "uint256",
          "name": "nftTokenId",
          "type": "uint256"
        },
        {
          "indexed": false,
          "internalType": "address",
          "name": "reserveAsset",
          "type": "address"
        },
        {
          "indexed": false,
          "internalType": "uint256",
          "name": "amount",
          "type": "uint256"
        },
        {
          "indexed": false,
          "internalType": "uint256",
          "name": "borrowIndex",
          "type": "uint256"
        }
      ],
      "name": "LoanRepaid",
      "type": "event"
    },
    {
      "anonymous": false,
      "inputs": [
        {
          "indexed": false,
          "internalType": "address",
          "name": "nftAsset",
          "type": "address"
        },
        {
          "indexed": false,
          "internalType": "uint256",
          "name": "tokenId",
          "type": "uint256"
        },
        {
          "indexed": true,
          "internalType": "address",
          "name": "interceptor",
          "type": "address"
        },
        {
          "indexed": false,
          "internalType": "bool",
          "name": "approved",
          "type": "bool"
        }
      ],
      "name": "LoanRepaidInterceptorUpdated",
      "type": "event"
    },
    {
      "anonymous": false,
      "inputs": [
        {
          "indexed": true,
          "internalType": "address",
          "name": "user",
          "type": "address"
        },
        {
          "indexed": true,
          "internalType": "uint256",
          "name": "loanId",
          "type": "uint256"
        },
        {
          "indexed": false,
          "internalType": "address",
          "name": "nftAsset",
          "type": "address"
        },
        {
          "indexed": false,
          "internalType": "uint256",
          "name": "nftTokenId",
          "type": "uint256"
        },
        {
          "indexed": false,
          "internalType": "address",
          "name": "reserveAsset",
          "type": "address"
        },
        {
          "indexed": false,
          "internalType": "uint256",
          "name": "amountAdded",
          "type": "uint256"
        },
        {
          "indexed": false,
          "internalType": "uint256",
          "name": "amountTaken",
          "type": "uint256"
        },
        {
          "indexed": false,
          "internalType": "uint256",
          "name": "borrowIndex",
          "type": "uint256"
        }
      ],
      "name": "LoanUpdated",
      "type": "event"
    },
    {
      "inputs": [
        {
          "internalType": "address",
          "name": "nftAsset",
          "type": "address"
        },
        {
          "internalType": "uint256",
          "name": "tokenId",
          "type": "uint256"
        }
      ],
      "name": "addLoanRepaidInterceptor",
      "outputs": [],
      "stateMutability": "nonpayable",
      "type": "function"
    },
    {
      "inputs": [
        {
          "internalType": "address",
          "name": "locker",
          "type": "address"
        },
        {
          "internalType": "bool",
          "name": "approved",
          "type": "bool"
        }
      ],
      "name": "approveFlashLoanLocker",
      "outputs": [],
      "stateMutability": "nonpayable",
      "type": "function"
    },
    {
      "inputs": [
        {
          "internalType": "address",
          "name": "interceptor",
          "type": "address"
        },
        {
          "internalType": "bool",
          "name": "approved",
          "type": "bool"
        }
      ],
      "name": "approveLoanRepaidInterceptor",
      "outputs": [],
      "stateMutability": "nonpayable",
      "type": "function"
    },
    {
      "inputs": [
        {
          "internalType": "address",
          "name": "initiator",
          "type": "address"
        },
        {
          "internalType": "uint256",
          "name": "loanId",
          "type": "uint256"
        },
        {
          "internalType": "address",
          "name": "onBehalfOf",
          "type": "address"
        },
        {
          "internalType": "uint256",
          "name": "bidPrice",
          "type": "uint256"
        },
        {
          "internalType": "uint256",
          "name": "borrowAmount",
          "type": "uint256"
        },
        {
          "internalType": "uint256",
          "name": "borrowIndex",
          "type": "uint256"
        }
      ],
      "name": "auctionLoan",
      "outputs": [],
      "stateMutability": "nonpayable",
      "type": "function"
    },
    {
      "inputs": [
        {
          "internalType": "uint256",
          "name": "loanId",
          "type": "uint256"
        }
      ],
      "name": "borrowerOf",
      "outputs": [
        {
          "internalType": "address",
          "name": "",
          "type": "address"
        }
      ],
      "stateMutability": "view",
      "type": "function"
    },
    {
      "inputs": [
        {
          "internalType": "address",
          "name": "initiator",
          "type": "address"
        },
        {
          "internalType": "address",
          "name": "onBehalfOf",
          "type": "address"
        },
        {
          "internalType": "address",
          "name": "nftAsset",
          "type": "address"
        },
        {
          "internalType": "uint256",
          "name": "nftTokenId",
          "type": "uint256"
        },
        {
          "internalType": "address",
          "name": "bNftAddress",
          "type": "address"
        },
        {
          "internalType": "address",
          "name": "reserveAsset",
          "type": "address"
        },
        {
          "internalType": "uint256",
          "name": "amount",
          "type": "uint256"
        },
        {
          "internalType": "uint256",
          "name": "borrowIndex",
          "type": "uint256"
        }
      ],
      "name": "createLoan",
      "outputs": [
        {
          "internalType": "uint256",
          "name": "",
          "type": "uint256"
        }
      ],
      "stateMutability": "nonpayable",
      "type": "function"
    },
    {
      "inputs": [
        {
          "internalType": "address",
          "name": "nftAsset",
          "type": "address"
        },
        {
          "internalType": "uint256",
          "name": "tokenId",
          "type": "uint256"
        }
      ],
      "name": "deleteLoanRepaidInterceptor",
      "outputs": [],
      "stateMutability": "nonpayable",
      "type": "function"
    },
    {
      "inputs": [
        {
          "internalType": "address",
          "name": "nftAsset",
          "type": "address"
        },
        {
          "internalType": "uint256",
          "name": "nftTokenId",
          "type": "uint256"
        }
      ],
      "name": "getCollateralLoanId",
      "outputs": [
        {
          "internalType": "uint256",
          "name": "",
          "type": "uint256"
        }
      ],
      "stateMutability": "view",
      "type": "function"
    },
    {
      "inputs": [],
      "name": "getCurrentLoanId",
      "outputs": [
        {
          "internalType": "uint256",
          "name": "",
          "type": "uint256"
        }
      ],
      "stateMutability": "view",
      "type": "function"
    },
    {
      "inputs": [
        {
          "internalType": "uint256",
          "name": "loanId",
          "type": "uint256"
        }
      ],
      "name": "getLoan",
      "outputs": [
        {
          "components": [
            {
              "internalType": "uint256",
              "name": "loanId",
              "type": "uint256"
            },
            {
              "internalType": "enum DataTypes.LoanState",
              "name": "state",
              "type": "uint8"
            },
            {
              "internalType": "address",
              "name": "borrower",
              "type": "address"
            },
            {
              "internalType": "address",
              "name": "nftAsset",
              "type": "address"
            },
            {
              "internalType": "uint256",
              "name": "nftTokenId",
              "type": "uint256"
            },
            {
              "internalType": "address",
              "name": "reserveAsset",
              "type": "address"
            },
            {
              "internalType": "uint256",
              "name": "scaledAmount",
              "type": "uint256"
            },
            {
              "internalType": "uint256",
              "name": "bidStartTimestamp",
              "type": "uint256"
            },
            {
              "internalType": "address",
              "name": "bidderAddress",
              "type": "address"
            },
            {
              "internalType": "uint256",
              "name": "bidPrice",
              "type": "uint256"
            },
            {
              "internalType": "uint256",
              "name": "bidBorrowAmount",
              "type": "uint256"
            },
            {
              "internalType": "address",
              "name": "firstBidderAddress",
              "type": "address"
            }
          ],
          "internalType": "struct DataTypes.LoanData",
          "name": "loanData",
          "type": "tuple"
        }
      ],
      "stateMutability": "view",
      "type": "function"
    },
    {
      "inputs": [
        {
          "internalType": "uint256",
          "name": "loanId",
          "type": "uint256"
        }
      ],
      "name": "getLoanCollateralAndReserve",
      "outputs": [
        {
          "internalType": "address",
          "name": "nftAsset",
          "type": "address"
        },
        {
          "internalType": "uint256",
          "name": "nftTokenId",
          "type": "uint256"
        },
        {
          "internalType": "address",
          "name": "reserveAsset",
          "type": "address"
        },
        {
          "internalType": "uint256",
          "name": "scaledAmount",
          "type": "uint256"
        }
      ],
      "stateMutability": "view",
      "type": "function"
    },
    {
      "inputs": [
        {
          "internalType": "uint256",
          "name": "loanId",
          "type": "uint256"
        }
      ],
      "name": "getLoanHighestBid",
      "outputs": [
        {
          "internalType": "address",
          "name": "",
          "type": "address"
        },
        {
          "internalType": "uint256",
          "name": "",
          "type": "uint256"
        }
      ],
      "stateMutability": "view",
      "type": "function"
    },
    {
      "inputs": [
        {
          "internalType": "address",
          "name": "nftAsset",
          "type": "address"
        },
        {
          "internalType": "uint256",
          "name": "tokenId",
          "type": "uint256"
        }
      ],
      "name": "getLoanRepaidInterceptors",
      "outputs": [
        {
          "internalType": "address[]",
          "name": "",
          "type": "address[]"
        }
      ],
      "stateMutability": "view",
      "type": "function"
    },
    {
      "inputs": [
        {
          "internalType": "uint256",
          "name": "loanId",
          "type": "uint256"
        }
      ],
      "name": "getLoanReserveBorrowAmount",
      "outputs": [
        {
          "internalType": "address",
          "name": "",
          "type": "address"
        },
        {
          "internalType": "uint256",
          "name": "",
          "type": "uint256"
        }
      ],
      "stateMutability": "view",
      "type": "function"
    },
    {
      "inputs": [
        {
          "internalType": "uint256",
          "name": "loanId",
          "type": "uint256"
        }
      ],
      "name": "getLoanReserveBorrowScaledAmount",
      "outputs": [
        {
          "internalType": "address",
          "name": "",
          "type": "address"
        },
        {
          "internalType": "uint256",
          "name": "",
          "type": "uint256"
        }
      ],
      "stateMutability": "view",
      "type": "function"
    },
    {
      "inputs": [
        {
          "internalType": "address",
          "name": "nftAsset",
          "type": "address"
        }
      ],
      "name": "getNftCollateralAmount",
      "outputs": [
        {
          "internalType": "uint256",
          "name": "",
          "type": "uint256"
        }
      ],
      "stateMutability": "view",
      "type": "function"
    },
    {
      "inputs": [
        {
          "internalType": "address",
          "name": "user",
          "type": "address"
        },
        {
          "internalType": "address",
          "name": "nftAsset",
          "type": "address"
        }
      ],
      "name": "getUserNftCollateralAmount",
      "outputs": [
        {
          "internalType": "uint256",
          "name": "",
          "type": "uint256"
        }
      ],
      "stateMutability": "view",
      "type": "function"
    },
    {
      "inputs": [
        {
          "internalType": "address",
          "name": "nftAsset",
          "type": "address"
        },
        {
          "internalType": "address",
          "name": "bNftAddress",
          "type": "address"
        }
      ],
      "name": "initNft",
      "outputs": [],
      "stateMutability": "nonpayable",
      "type": "function"
    },
    {
      "inputs": [
        {
          "internalType": "contract ILendPoolAddressesProvider",
          "name": "provider",
          "type": "address"
        }
      ],
      "name": "initialize",
      "outputs": [],
      "stateMutability": "nonpayable",
      "type": "function"
    },
    {
      "inputs": [
        {
          "internalType": "address",
          "name": "locker",
          "type": "address"
        }
      ],
      "name": "isFlashLoanLockerApproved",
      "outputs": [
        {
          "internalType": "bool",
          "name": "",
          "type": "bool"
        }
      ],
      "stateMutability": "view",
      "type": "function"
    },
    {
      "inputs": [
        {
          "internalType": "address",
          "name": "interceptor",
          "type": "address"
        }
      ],
      "name": "isLoanRepaidInterceptorApproved",
      "outputs": [
        {
          "internalType": "bool",
          "name": "",
          "type": "bool"
        }
      ],
      "stateMutability": "view",
      "type": "function"
    },
    {
      "inputs": [
        {
          "internalType": "address",
          "name": "initiator",
          "type": "address"
        },
        {
          "internalType": "uint256",
          "name": "loanId",
          "type": "uint256"
        },
        {
          "internalType": "address",
          "name": "bNftAddress",
          "type": "address"
        },
        {
          "internalType": "uint256",
          "name": "borrowAmount",
          "type": "uint256"
        },
        {
          "internalType": "uint256",
          "name": "borrowIndex",
          "type": "uint256"
        }
      ],
      "name": "liquidateLoan",
      "outputs": [],
      "stateMutability": "nonpayable",
      "type": "function"
    },
    {
      "inputs": [
        {
          "internalType": "address",
          "name": "initiator",
          "type": "address"
        },
        {
          "internalType": "uint256",
          "name": "loanId",
          "type": "uint256"
        },
        {
          "internalType": "address",
          "name": "bNftAddress",
          "type": "address"
        },
        {
          "internalType": "address",
          "name": "onBehalfOf",
          "type": "address"
        },
        {
          "internalType": "uint256",
          "name": "bidPrice",
          "type": "uint256"
        },
        {
          "internalType": "uint256",
          "name": "borrowAmount",
          "type": "uint256"
        },
        {
          "internalType": "uint256",
          "name": "borrowIndex",
          "type": "uint256"
        }
      ],
      "name": "liquidatingBuyLoan",
      "outputs": [],
      "stateMutability": "nonpayable",
      "type": "function"
    },
    {
      "inputs": [
        {
          "internalType": "address",
          "name": "operator",
          "type": "address"
        },
        {
          "internalType": "address",
          "name": "from",
          "type": "address"
        },
        {
          "internalType": "uint256",
          "name": "tokenId",
          "type": "uint256"
        },
        {
          "internalType": "bytes",
          "name": "data",
          "type": "bytes"
        }
      ],
      "name": "onERC721Received",
      "outputs": [
        {
          "internalType": "bytes4",
          "name": "",
          "type": "bytes4"
        }
      ],
      "stateMutability": "pure",
      "type": "function"
    },
    {
      "inputs": [
        {
          "internalType": "address",
          "name": "nftAsset",
          "type": "address"
        },
        {
          "internalType": "uint256[]",
          "name": "tokenIds",
          "type": "uint256[]"
        },
        {
          "internalType": "address",
          "name": "locker",
          "type": "address"
        }
      ],
      "name": "purgeFlashLoanLocking",
      "outputs": [],
      "stateMutability": "nonpayable",
      "type": "function"
    },
    {
      "inputs": [
        {
          "internalType": "address",
          "name": "nftAsset",
          "type": "address"
        },
        {
          "internalType": "uint256[]",
          "name": "tokenIds",
          "type": "uint256[]"
        },
        {
          "internalType": "address",
          "name": "interceptor",
          "type": "address"
        }
      ],
      "name": "purgeLoanRepaidInterceptor",
      "outputs": [],
      "stateMutability": "nonpayable",
      "type": "function"
    },
    {
      "inputs": [
        {
          "internalType": "address",
          "name": "initiator",
          "type": "address"
        },
        {
          "internalType": "uint256",
          "name": "loanId",
          "type": "uint256"
        },
        {
          "internalType": "uint256",
          "name": "amountTaken",
          "type": "uint256"
        },
        {
          "internalType": "uint256",
          "name": "borrowIndex",
          "type": "uint256"
        }
      ],
      "name": "redeemLoan",
      "outputs": [],
      "stateMutability": "nonpayable",
      "type": "function"
    },
    {
      "inputs": [
        {
          "internalType": "address",
          "name": "initiator",
          "type": "address"
        },
        {
          "internalType": "uint256",
          "name": "loanId",
          "type": "uint256"
        },
        {
          "internalType": "address",
          "name": "bNftAddress",
          "type": "address"
        },
        {
          "internalType": "uint256",
          "name": "amount",
          "type": "uint256"
        },
        {
          "internalType": "uint256",
          "name": "borrowIndex",
          "type": "uint256"
        }
      ],
      "name": "repayLoan",
      "outputs": [],
      "stateMutability": "nonpayable",
      "type": "function"
    },
    {
      "inputs": [
        {
          "internalType": "address",
          "name": "nftAsset",
          "type": "address"
        },
        {
          "internalType": "uint256",
          "name": "tokenId",
          "type": "uint256"
        },
        {
          "internalType": "bool",
          "name": "locked",
          "type": "bool"
        }
      ],
      "name": "setFlashLoanLocking",
      "outputs": [],
      "stateMutability": "nonpayable",
      "type": "function"
    },
    {
      "inputs": [
        {
          "internalType": "address",
          "name": "initiator",
          "type": "address"
        },
        {
          "internalType": "uint256",
          "name": "loanId",
          "type": "uint256"
        },
        {
          "internalType": "uint256",
          "name": "amountAdded",
          "type": "uint256"
        },
        {
          "internalType": "uint256",
          "name": "amountTaken",
          "type": "uint256"
        },
        {
          "internalType": "uint256",
          "name": "borrowIndex",
          "type": "uint256"
        }
      ],
      "name": "updateLoan",
      "outputs": [],
      "stateMutability": "nonpayable",
      "type": "function"
    }
  ],
  "bytecode": "0x608060405234801561001057600080fd5b5061393b806100206000396000f3fe608060405234801561001057600080fd5b50600436106101d85760003560e01c8063650f0a34116101045780638c62ddd6116100a2578063c73288b511610071578063c73288b51461057c578063ce9532421461058f578063d9c20420146105a2578063f519a390146105d757600080fd5b80638c62ddd61461050e578063b9da2daa14610543578063c0e6669014610556578063c4d66de81461056957600080fd5b80637762b915116100de5780637762b915146104595780637c28159e146104d55780637e45c1cc146104e8578063873e4dab146104fb57600080fd5b8063650f0a34146103fa5780636a9cbfe61461040d5780636ade35931461042057600080fd5b806331597c8c1161017c578063504006ca1161014b578063504006ca1461038d5780635628d03e146103ad57806356500167146103b557806357e4bfce146103c857600080fd5b806331597c8c1461030257806332663b32146103155780633f2df9241461033e5780634409293a1461035157600080fd5b806309d33dee116101b857806309d33dee14610238578063150b7a021461024b5780631637369c146102835780632a24d53d146102b957600080fd5b806219b685146101dd5780627cabf71461020357806305582adc14610218575b600080fd5b6101f06101eb36600461323f565b610603565b6040519081526020015b60405180910390f35b6102166102113660046135ac565b61091e565b005b61022b610226366004613427565b610b3b565b6040516101fa91906136ef565b610216610246366004613452565b610bbb565b61026a6102593660046132ca565b630a85bd0160e11b95945050505050565b6040516001600160e01b031990911681526020016101fa565b6101f0610291366004613427565b6001600160a01b03919091166000908152603660209081526040808320938352929052205490565b6102ea6102c7366004613645565b60009081526035602052604090206001015461010090046001600160a01b031690565b6040516001600160a01b0390911681526020016101fa565b6102166103103660046133fa565b610faa565b6101f06103233660046131a1565b6001600160a01b031660009081526037602052604090205490565b61021661034c3660046134bf565b6110aa565b61037d61035f3660046131a1565b6001600160a01b03166000908152603b602052604090205460ff1690565b60405190151581526020016101fa565b6103a061039b366004613645565b61146c565b6040516101fa919061378f565b6101f06115c4565b6102166103c3366004613510565b6115d4565b6103db6103d6366004613645565b611850565b604080516001600160a01b0390931683526020830191909152016101fa565b610216610408366004613427565b611952565b61021661041b36600461356b565b611a42565b6101f061042e3660046131d9565b6001600160a01b03918216600090815260386020908152604080832093909416825291909152205490565b6104a0610467366004613645565b60009081526035602052604090206002810154600382015460048301546005909301546001600160a01b03928316949193929092169190565b6040516101fa94939291906001600160a01b039485168152602081019390935292166040820152606081019190915260800190565b6102166104e33660046133fa565b611c09565b6102166104f6366004613364565b611d09565b6102166105093660046131d9565b611f94565b6103db61051c366004613645565b600090815260356020526040902060078101546008909101546001600160a01b0390911691565b6102166105513660046135e6565b612049565b610216610564366004613427565b6122a3565b6102166105773660046131a1565b6123fe565b61021661058a366004613364565b612570565b61021661059d3660046134bf565b612755565b6103db6105b0366004613645565b600090815260356020526040902060048101546005909101546001600160a01b0390911691565b61037d6105e53660046131a1565b6001600160a01b031660009081526039602052604090205460ff1690565b600061060d612ae2565b6001600160a01b0316336001600160a01b0316146040518060400160405280600381526020016203530360ec1b815250906106645760405162461bcd60e51b815260040161065b919061373c565b60405180910390fd5b506001600160a01b038716600090815260366020908152604080832089845282529182902054825180840190935260038352621a189960e91b91830191909152156106c25760405162461bcd60e51b815260040161065b919061373c565b5060006106cf8484612b5f565b905060006106dc60345490565b90506106ec603480546001019055565b6001600160a01b03891660008181526036602090815260408083208c84529091529081902083905551632142170760e11b81526342842e0e9061073790339030908d90600401613697565b600060405180830381600087803b15801561075157600080fd5b505af1158015610765573d6000803e3d6000fd5b50506040516340c10f1960e01b81526001600160a01b038d81166004830152602482018c90528a1692506340c10f199150604401600060405180830381600087803b1580156107b357600080fd5b505af11580156107c7573d6000803e3d6000fd5b505050600082815260356020526040902082815560018082018054929350600292909160ff199091169083021790555060018181018054610100600160a81b0319166101006001600160a01b038f8116918202929092179092556002840180546001600160a01b03199081168f8416908117909255600386018e9055600486018054909116928c169290921790915560058401869055600091825260386020908152604080842092845291905281208054909190610886908490613869565b90915550506001600160a01b038a1660009081526037602052604081208054600192906108b4908490613869565b92505081905550818b6001600160a01b03168d6001600160a01b03167fd08b40d1df4963a65ee43b1f9e7fabb01f24971fe4562cd297286e59606fb40e8d8d8c8c8c6040516109079594939291906136bb565b60405180910390a4509a9950505050505050505050565b610926612ae2565b6001600160a01b0316336001600160a01b0316146040518060400160405280600381526020016203530360ec1b815250906109745760405162461bcd60e51b815260040161065b919061373c565b5060008381526035602052604090206003600182015460ff1660058111156109ac57634e487b7160e01b600052602160045260246000fd5b146040518060400160405280600381526020016203438360ec1b815250906109e75760405162461bcd60e51b815260040161065b919061373c565b5060006109f48484612b5f565b6040805180820190915260038152621a1c1960e91b602082015290915081610a2f5760405162461bcd60e51b815260040161065b919061373c565b5080826005015410156040518060400160405280600381526020016234383360e81b81525090610a725760405162461bcd60e51b815260040161065b919061373c565b5080826005016000828254610a8791906138c0565b909155505060018201805460ff19166002908117909155600060068401819055600984018190556007840180546001600160a01b03199081169091556008850191909155600a8401805490911690558201546003830154600484015460405188936001600160a01b038b8116947f6ecaa682ce360194124d449063076fd7fd9bcfd026d18ada4cdb713e3780dd7894610b2b9493831693919216908b908b906136bb565b60405180910390a3505050505050565b6001600160a01b0382166000908152603a60209081526040808320848452825291829020805483518184028101840190945280845260609392830182828015610bad57602002820191906000526020600020905b81546001600160a01b03168152600190910190602001808311610b8f575b505050505090505b92915050565b610bc3612ae2565b6001600160a01b0316336001600160a01b0316146040518060400160405280600381526020016203530360ec1b81525090610c115760405162461bcd60e51b815260040161065b919061373c565b50600086815260356020526040902060078101546008820154600283015460038401546001600160a01b0393841693610c4b921690612c3f565b6002600184015460ff166005811115610c7457634e487b7160e01b600052602160045260246000fd5b146040518060400160405280600381526020016203438360ec1b81525090610caf5760405162461bcd60e51b815260040161065b919061373c565b506001838101805460ff19166005178155426006860155600a850180546001600160a01b038b81166001600160a01b03199283168117909355600988018a9055600788018054909216909217905560088601899055600286018054821660009081526036602090815260408083206003808c01548552908352818420849055955461010090048516835260388252808320935490941682529182528290205482518084019093529282526234303760e81b90820152911115610d845760405162461bcd60e51b815260040161065b919061373c565b506001838101546001600160a01b0361010090910481166000908152603860209081526040808320600289015490941683529290529081208054909190610dcc9084906138c0565b909155505060028301546001600160a01b0316600090815260376020908152604091829020548251808401909352600383526234313160e81b9183019190915260011115610e2d5760405162461bcd60e51b815260040161065b919061373c565b5060028301546001600160a01b03166000908152603760205260408120805460019290610e5b9084906138c0565b90915550506003830154604051630852cd8d60e31b815260048101919091526001600160a01b038916906342966c6890602401600060405180830381600087803b158015610ea857600080fd5b505af1158015610ebc573d6000803e3d6000fd5b5050505060028301546003840154604051632142170760e11b81526001600160a01b03909216916342842e0e91610ef99130913391600401613697565b600060405180830381600087803b158015610f1357600080fd5b505af1158015610f27573d6000803e3d6000fd5b50505050600283015460038401546009850154604080516001600160a01b039485168152602081019390935282015260608101869052888216608082015260a081018890528a918c16907f8e088550f9d8e4ca0ffeb9af47e0a0d0c4e4ed87260784524f6da5cf97a5bf8a9060c00160405180910390a350505050505050505050565b603360009054906101000a90046001600160a01b03166001600160a01b03166337a06c746040518163ffffffff1660e01b815260040160206040518083038186803b158015610ff857600080fd5b505afa15801561100c573d6000803e3d6000fd5b505050506040513d601f19601f8201168201806040525081019061103091906131bd565b6001600160a01b0316336001600160a01b0316146040518060400160405280600381526020016203430360ec1b8152509061107e5760405162461bcd60e51b815260040161065b919061373c565b506001600160a01b03919091166000908152603960205260409020805460ff1916911515919091179055565b6110b2612ae2565b6001600160a01b0316336001600160a01b0316146040518060400160405280600381526020016203530360ec1b815250906111005760405162461bcd60e51b815260040161065b919061373c565b5060008481526035602052604090206003600182015460ff16600581111561113857634e487b7160e01b600052602160045260246000fd5b146040518060400160405280600381526020016203438360ec1b815250906111735760405162461bcd60e51b815260040161065b919061373c565b5060028101546003820154611191916001600160a01b031690612c3f565b60008581526035602090815260408083206001808201805460ff1916600517905560099091018790556002850180546001600160a01b039081168652603685528386206003808901548852908652848720879055878401546101009004821687526038865284872092549091168652908452938290205482518084019093529382526234303760e81b928201929092529110156112415760405162461bcd60e51b815260040161065b919061373c565b506001818101546001600160a01b03610100909104811660009081526038602090815260408083206002870154909416835292905290812080549091906112899084906138c0565b909155505060028101546001600160a01b0316600090815260376020908152604091829020548251808401909352600383526234313160e81b91830191909152600111156112ea5760405162461bcd60e51b815260040161065b919061373c565b5060028101546001600160a01b031660009081526037602052604081208054600192906113189084906138c0565b90915550506003810154604051630852cd8d60e31b815260048101919091526001600160a01b038516906342966c6890602401600060405180830381600087803b15801561136557600080fd5b505af1158015611379573d6000803e3d6000fd5b5050505060028101546003820154604051632142170760e11b81526001600160a01b03909216916342842e0e916113b69130913391600401613697565b600060405180830381600087803b1580156113d057600080fd5b505af11580156113e4573d6000803e3d6000fd5b5050505060028101546003820154600483015460405188936001600160a01b038b8116947fd747fd2f3682d660309b6fa0476371193fb5ba2ac9541f18ab24a3032f6d662a9461143f9493831693919216908a908a906136bb565b60405180910390a360028101546003820154611464916001600160a01b031690612d89565b505050505050565b6040805161018081018252600080825260208201819052918101829052606081018290526080810182905260a0810182905260c0810182905260e0810182905261010081018290526101208101829052610140810182905261016081019190915260008281526035602090815260409182902082516101808101909352805483526001810154909183019060ff16600581111561151957634e487b7160e01b600052602160045260246000fd5b600581111561153857634e487b7160e01b600052602160045260246000fd5b815260018201546001600160a01b03610100918290048116602084015260028401548116604084015260038401546060840152600484015481166080840152600584015460a0840152600684015460c08401526007840154811660e08401526008840154918301919091526009830154610120830152600a909201549091166101409091015292915050565b60006115cf60345490565b905090565b6115dc612ae2565b6001600160a01b0316336001600160a01b0316146040518060400160405280600381526020016203530360ec1b8152509061162a5760405162461bcd60e51b815260040161065b919061373c565b5060008581526035602052604090206007810154600882015460068301546001600160a01b03909216916116f6576002600184015460ff16600581111561168157634e487b7160e01b600052602160045260246000fd5b146040518060400160405280600381526020016203438360ec1b815250906116bc5760405162461bcd60e51b815260040161065b919061373c565b5060018301805460ff19166003179055426006840155600a830180546001600160a01b0389166001600160a01b031990911617905561179e565b6003600184015460ff16600581111561171f57634e487b7160e01b600052602160045260246000fd5b146040518060400160405280600381526020016203438360ec1b8152509061175a5760405162461bcd60e51b815260040161065b919061373c565b50826008015486116040518060400160405280600381526020016234383560e81b8152509061179c5760405162461bcd60e51b815260040161065b919061373c565b505b600983018590556007830180546001600160a01b0319166001600160a01b0389811691821790925560088501889055600285015460038601546040805192851683526020830191909152810188905260608101879052608081019190915260a0810188905283821660c082015260e0810183905289918b16907fe86fa27496393285639b6a9118486ec19662b8fc3d41cf656ba8ff79a0be52a3906101000160405180910390a3505050505050505050565b60008181526035602052604081206005015481908061188a575050506000908152603560205260408120600401546001600160a01b031691565b600061192e611897612ae2565b60008781526035602052604090819020600490810154915163386497fd60e01b81526001600160a01b039283169181019190915291169063386497fd9060240160206040518083038186803b1580156118ef57600080fd5b505afa158015611903573d6000803e3d6000fd5b505050506040513d601f19601f82011682018060405250810190611927919061365d565b8390612ecc565b600095865260356020526040909520600401546001600160a01b0316959350505050565b33600090815260396020908152604091829020548251808401909352600383526234313960e81b9183019190915260ff166119a05760405162461bcd60e51b815260040161065b919061373c565b506001600160a01b0382166000908152603a6020908152604080832084845290915281203391805b8254811015611a3157836001600160a01b03168382815481106119fb57634e487b7160e01b600052603260045260246000fd5b6000918252602090912001546001600160a01b03161415611a1f5760019150611a31565b80611a29816138d7565b9150506119c8565b811561146457611464868683612f8f565b336000908152603b6020908152604091829020548251808401909352600383526203432360ec1b9183019190915260ff16611a905760405162461bcd60e51b815260040161065b919061373c565b506033546040805163134a58ad60e31b815290516000926001600160a01b031691639a52c568916004808301926020929190829003018186803b158015611ad657600080fd5b505afa158015611aea573d6000803e3d6000fd5b505050506040513d601f19601f82011682018060405250810190611b0e91906131bd565b604051632cf98ebd60e11b81526001600160a01b03868116600483015291909116906359f31d7a90602401604080518083038186803b158015611b5057600080fd5b505afa158015611b64573d6000803e3d6000fd5b505050506040513d601f19601f82011682018060405250810190611b889190613211565b5090506001600160a01b038116630c37929e84336040516001600160e01b031960e085901b16815260048101929092526001600160a01b031660248201528415156044820152606401600060405180830381600087803b158015611beb57600080fd5b505af1158015611bff573d6000803e3d6000fd5b5050505050505050565b603360009054906101000a90046001600160a01b03166001600160a01b03166337a06c746040518163ffffffff1660e01b815260040160206040518083038186803b158015611c5757600080fd5b505afa158015611c6b573d6000803e3d6000fd5b505050506040513d601f19601f82011682018060405250810190611c8f91906131bd565b6001600160a01b0316336001600160a01b0316146040518060400160405280600381526020016203430360ec1b81525090611cdd5760405162461bcd60e51b815260040161065b919061373c565b506001600160a01b03919091166000908152603b60205260409020805460ff1916911515919091179055565b603360009054906101000a90046001600160a01b03166001600160a01b03166337a06c746040518163ffffffff1660e01b815260040160206040518083038186803b158015611d5757600080fd5b505afa158015611d6b573d6000803e3d6000fd5b505050506040513d601f19601f82011682018060405250810190611d8f91906131bd565b6001600160a01b0316336001600160a01b0316146040518060400160405280600381526020016203430360ec1b81525090611ddd5760405162461bcd60e51b815260040161065b919061373c565b506033546040805163134a58ad60e31b815290516000926001600160a01b031691639a52c568916004808301926020929190829003018186803b158015611e2357600080fd5b505afa158015611e37573d6000803e3d6000fd5b505050506040513d601f19601f82011682018060405250810190611e5b91906131bd565b604051632cf98ebd60e11b81526001600160a01b03878116600483015291909116906359f31d7a90602401604080518083038186803b158015611e9d57600080fd5b505afa158015611eb1573d6000803e3d6000fd5b505050506040513d601f19601f82011682018060405250810190611ed59190613211565b50905060005b8381101561146457816001600160a01b0316630c37929e868684818110611f1257634e487b7160e01b600052603260045260246000fd5b6040516001600160e01b031960e086901b168152602090910292909201356004830152506001600160a01b038616602482015260006044820152606401600060405180830381600087803b158015611f6957600080fd5b505af1158015611f7d573d6000803e3d6000fd5b505050508080611f8c906138d7565b915050611edb565b611f9c612ae2565b6001600160a01b0316336001600160a01b0316146040518060400160405280600381526020016203530360ec1b81525090611fea5760405162461bcd60e51b815260040161065b919061373c565b5060405163a22cb46560e01b81526001600160a01b0382811660048301526001602483015283169063a22cb46590604401600060405180830381600087803b15801561203557600080fd5b505af1158015611464573d6000803e3d6000fd5b612051612ae2565b6001600160a01b0316336001600160a01b0316146040518060400160405280600381526020016203530360ec1b8152509061209f5760405162461bcd60e51b815260040161065b919061373c565b5060008481526035602052604090206002600182015460ff1660058111156120d757634e487b7160e01b600052602160045260246000fd5b146040518060400160405280600381526020016203438360ec1b815250906121125760405162461bcd60e51b815260040161065b919061373c565b506000841561217b576121258584612b5f565b60408051808201909152600381526234383160e81b6020820152909150816121605760405162461bcd60e51b815260040161065b919061373c565b50808260050160008282546121759190613869565b90915550505b83156122245761218b8484612b5f565b6040805180820190915260038152621a1c1960e91b6020820152909150816121c65760405162461bcd60e51b815260040161065b919061373c565b5080826005015410156040518060400160405280600381526020016234383360e81b815250906122095760405162461bcd60e51b815260040161065b919061373c565b508082600501600082825461221e91906138c0565b90915550505b600282015460038301546004840154604080516001600160a01b039485168152602081019390935290831690820152606081018790526080810186905260a0810185905287918916907f69be227a0f861d92245592f172e9f035838b1e7fe03192b3b1dde80c9b104d8d9060c00160405180910390a350505050505050565b33600090815260396020908152604091829020548251808401909352600383526234313960e81b9183019190915260ff166122f15760405162461bcd60e51b815260040161065b919061373c565b506001600160a01b0382166000908152603a60209081526040808320848452909152812033915b815481101561237f57826001600160a01b031682828154811061234b57634e487b7160e01b600052603260045260246000fd5b6000918252602090912001546001600160a01b0316141561236d575050505050565b80612377816138d7565b915050612318565b50805460018082018355600083815260209081902090920180546001600160a01b0319166001600160a01b03868116918217909255604080519289168352938201879052928101919091527fe545d91adc7590a85edcad15f6db01579e5ec5f399437fecaa379e58c68919139060600160405180910390a250505b5050565b600054610100900460ff161580801561241e5750600054600160ff909116105b806124385750303b158015612438575060005460ff166001145b61249b5760405162461bcd60e51b815260206004820152602e60248201527f496e697469616c697a61626c653a20636f6e747261637420697320616c72656160448201526d191e481a5b9a5d1a585b1a5e995960921b606482015260840161065b565b6000805460ff1916600117905580156124be576000805461ff0019166101001790555b6124c6613134565b603380546001600160a01b0319166001600160a01b0384161790556034805460010190556124f2612ae2565b6001600160a01b03167f908408e307fc569b417f6cbec5d5a06f44a0a505ac0479b47d421a4b2fd6a1e660405160405180910390a280156123fa576000805461ff0019169055604051600181527f7f26b83ff96e1f2b6a682f133852f6798a09c465da95921460cefb38474024989060200160405180910390a15050565b603360009054906101000a90046001600160a01b03166001600160a01b03166337a06c746040518163ffffffff1660e01b815260040160206040518083038186803b1580156125be57600080fd5b505afa1580156125d2573d6000803e3d6000fd5b505050506040513d601f19601f820116820180604052508101906125f691906131bd565b6001600160a01b0316336001600160a01b0316146040518060400160405280600381526020016203430360ec1b815250906126445760405162461bcd60e51b815260040161065b919061373c565b5060005b8281101561274e576001600160a01b0385166000908152603a602052604081208186868581811061268957634e487b7160e01b600052603260045260246000fd5b905060200201358152602001908152602001600020905060005b815481101561273957836001600160a01b03168282815481106126d657634e487b7160e01b600052603260045260246000fd5b6000918252602090912001546001600160a01b03161415612727576127228787878681811061271557634e487b7160e01b600052603260045260246000fd5b9050602002013583612f8f565b612739565b80612731816138d7565b9150506126a3565b50508080612746906138d7565b915050612648565b5050505050565b61275d612ae2565b6001600160a01b0316336001600160a01b0316146040518060400160405280600381526020016203530360ec1b815250906127ab5760405162461bcd60e51b815260040161065b919061373c565b5060008481526035602052604090206002600182015460ff1660058111156127e357634e487b7160e01b600052602160045260246000fd5b146040518060400160405280600381526020016203438360ec1b8152509061281e5760405162461bcd60e51b815260040161065b919061373c565b506002810154600382015461283c916001600160a01b031690612c3f565b60008581526035602090815260408083206001908101805460ff191660041790556002850180546001600160a01b039081168652603685528386206003808901548852908652848720879055878401546101009004821687526038865284872092549091168652908452938290205482518084019093529382526234303760e81b928201929092529110156128e45760405162461bcd60e51b815260040161065b919061373c565b506001818101546001600160a01b036101009091048116600090815260386020908152604080832060028701549094168352929052908120805490919061292c9084906138c0565b909155505060028101546001600160a01b0316600090815260376020908152604091829020548251808401909352600383526234313160e81b918301919091526001111561298d5760405162461bcd60e51b815260040161065b919061373c565b5060028101546001600160a01b031660009081526037602052604081208054600192906129bb9084906138c0565b90915550506003810154604051630852cd8d60e31b815260048101919091526001600160a01b038516906342966c6890602401600060405180830381600087803b158015612a0857600080fd5b505af1158015612a1c573d6000803e3d6000fd5b5050505060028101546003820154604051632142170760e11b81526001600160a01b03909216916342842e0e91612a599130913391600401613697565b600060405180830381600087803b158015612a7357600080fd5b505af1158015612a87573d6000803e3d6000fd5b5050505060028101546003820154600483015460405188936001600160a01b038b8116947fc75f1eaee157bc8a900f5c27364c2c4d99adfac7833e685565777342ef2172b19461143f9493831693919216908a908a906136bb565b603354604080516311ead9ef60e31b815290516000926001600160a01b031691638f56cf78916004808301926020929190829003018186803b158015612b2757600080fd5b505afa158015612b3b573d6000803e3d6000fd5b505050506040513d601f19601f820116820180604052508101906115cf91906131bd565b60408051808201909152600381526219181960e91b602082015260009082612b9a5760405162461bcd60e51b815260040161065b919061373c565b506000612ba8600284613881565b90506b033b2e3c9fd0803ce8000000612bc3826000196138c0565b612bcd9190613881565b8411156040518060400160405280600381526020016203230360ec1b81525090612c0a5760405162461bcd60e51b815260040161065b919061373c565b508281612c236b033b2e3c9fd0803ce8000000876138a1565b612c2d9190613869565b612c379190613881565b949350505050565b6000612c4b8383610b3b565b905060005b8151811015612d83576000828281518110612c7b57634e487b7160e01b600052603260045260246000fd5b6020908102919091010151604051635bda1d7960e01b81526001600160a01b0387811660048301526024820187905290911690635bda1d7990604401602060405180830381600087803b158015612cd157600080fd5b505af1158015612ce5573d6000803e3d6000fd5b505050506040513d601f19601f82011682018060405250810190612d099190613629565b905080612d705760405162461bcd60e51b815260206004820152602f60248201527f424e46543a2063616c6c20696e746572636570746f72206265666f726520746f60448201526e1ad95b88189d5c9b8819985a5b1959608a1b606482015260840161065b565b5080612d7b816138d7565b915050612c50565b50505050565b6000612d958383610b3b565b905060005b8151811015612d83576000828281518110612dc557634e487b7160e01b600052603260045260246000fd5b6020908102919091010151604051632d1b1add60e01b81526001600160a01b0387811660048301526024820187905290911690632d1b1add90604401602060405180830381600087803b158015612e1b57600080fd5b505af1158015612e2f573d6000803e3d6000fd5b505050506040513d601f19601f82011682018060405250810190612e539190613629565b905080612eb95760405162461bcd60e51b815260206004820152602e60248201527f424e46543a2063616c6c20696e746572636570746f7220616674657220746f6b60448201526d195b88189d5c9b8819985a5b195960921b606482015260840161065b565b5080612ec4816138d7565b915050612d9a565b6000821580612ed9575081155b15612ee657506000610bb5565b81612efe60026b033b2e3c9fd0803ce8000000613881565b612f0a906000196138c0565b612f149190613881565b8311156040518060400160405280600381526020016203230360ec1b81525090612f515760405162461bcd60e51b815260040161065b919061373c565b506b033b2e3c9fd0803ce8000000612f6a600282613881565b612f7484866138a1565b612f7e9190613869565b612f889190613881565b9392505050565b6001600160a01b0383166000908152603a6020908152604080832085845290915281208054909190829084908110612fd757634e487b7160e01b600052603260045260246000fd5b600091825260208220015483546001600160a01b039091169250612ffd906001906138c0565b90508084101561309a57600083828154811061302957634e487b7160e01b600052603260045260246000fd5b9060005260206000200160009054906101000a90046001600160a01b031690508084868154811061306a57634e487b7160e01b600052603260045260246000fd5b9060005260206000200160006101000a8154816001600160a01b0302191690836001600160a01b03160217905550505b828054806130b857634e487b7160e01b600052603160045260246000fd5b60008281526020808220830160001990810180546001600160a01b0319169055909201909255604080516001600160a01b038a81168252928101899052908101929092528316907fe545d91adc7590a85edcad15f6db01579e5ec5f399437fecaa379e58c68919139060600160405180910390a2505050505050565b600054610100900460ff1661319f5760405162461bcd60e51b815260206004820152602b60248201527f496e697469616c697a61626c653a20636f6e7472616374206973206e6f74206960448201526a6e697469616c697a696e6760a81b606482015260840161065b565b565b6000602082840312156131b2578081fd5b8135612f8881613908565b6000602082840312156131ce578081fd5b8151612f8881613908565b600080604083850312156131eb578081fd5b82356131f681613908565b9150602083013561320681613908565b809150509250929050565b60008060408385031215613223578182fd5b825161322e81613908565b602084015190925061320681613908565b600080600080600080600080610100898b03121561325b578384fd5b883561326681613908565b9750602089013561327681613908565b9650604089013561328681613908565b955060608901359450608089013561329d81613908565b935060a08901356132ad81613908565b979a969950949793969295929450505060c08201359160e0013590565b6000806000806000608086880312156132e1578081fd5b85356132ec81613908565b945060208601356132fc81613908565b935060408601359250606086013567ffffffffffffffff8082111561331f578283fd5b818801915088601f830112613332578283fd5b813581811115613340578384fd5b896020828501011115613351578384fd5b9699959850939650602001949392505050565b60008060008060608587031215613379578384fd5b843561338481613908565b9350602085013567ffffffffffffffff808211156133a0578485fd5b818701915087601f8301126133b3578485fd5b8135818111156133c1578586fd5b8860208260051b85010111156133d5578586fd5b60208301955080945050505060408501356133ef81613908565b939692955090935050565b6000806040838503121561340c578182fd5b823561341781613908565b9150602083013561320681613920565b60008060408385031215613439578182fd5b823561344481613908565b946020939093013593505050565b600080600080600080600060e0888a03121561346c578283fd5b873561347781613908565b965060208801359550604088013561348e81613908565b9450606088013561349e81613908565b9699959850939660808101359560a0820135955060c0909101359350915050565b600080600080600060a086880312156134d6578283fd5b85356134e181613908565b94506020860135935060408601356134f881613908565b94979396509394606081013594506080013592915050565b60008060008060008060c08789031215613528578384fd5b863561353381613908565b955060208701359450604087013561354a81613908565b959894975094956060810135955060808101359460a0909101359350915050565b60008060006060848603121561357f578081fd5b833561358a81613908565b92506020840135915060408401356135a181613920565b809150509250925092565b600080600080608085870312156135c1578182fd5b84356135cc81613908565b966020860135965060408601359560600135945092505050565b600080600080600060a086880312156135fd578283fd5b853561360881613908565b97602087013597506040870135966060810135965060800135945092505050565b60006020828403121561363a578081fd5b8151612f8881613920565b600060208284031215613656578081fd5b5035919050565b60006020828403121561366e578081fd5b5051919050565b6006811061369357634e487b7160e01b600052602160045260246000fd5b9052565b6001600160a01b039384168152919092166020820152604081019190915260600190565b6001600160a01b03958616815260208101949094529190931660408301526060820192909252608081019190915260a00190565b6020808252825182820181905260009190848201906040850190845b818110156137305783516001600160a01b03168352928401929184019160010161370b565b50909695505050505050565b6000602080835283518082850152825b818110156137685785810183015185820160400152820161374c565b818111156137795783604083870101525b50601f01601f1916929092016040019392505050565b815181526020808301516101808301916137ab90840182613675565b5060408301516137c660408401826001600160a01b03169052565b5060608301516137e160608401826001600160a01b03169052565b506080830151608083015260a083015161380660a08401826001600160a01b03169052565b5060c083015160c083015260e083015160e083015261010080840151613836828501826001600160a01b03169052565b505061012083810151908301526101408084015190830152610160928301516001600160a01b0316929091019190915290565b6000821982111561387c5761387c6138f2565b500190565b60008261389c57634e487b7160e01b81526012600452602481fd5b500490565b60008160001904831182151516156138bb576138bb6138f2565b500290565b6000828210156138d2576138d26138f2565b500390565b60006000198214156138eb576138eb6138f2565b5060010190565b634e487b7160e01b600052601160045260246000fd5b6001600160a01b038116811461391d57600080fd5b50565b801515811461391d57600080fdfea164736f6c6343000804000a",
  "linkReferences": {},
  "deployedLinkReferences": {}
}