{
  "_format": "hh-sol-artifact-1",
  "contractName": "NFTLinkOracleGetter",
  "sourceName": "contracts/protocol/NFTLinkOracleGetter.sol",
  "abi": [
    {
      "anonymous": false,
      "inputs": [
        {
          "indexed": false,
          "internalType": "uint8",
          "name": "version",
          "type": "uint8"
        }
      ],
      "name": "Initialized",
      "type": "event"
    },
    {
      "inputs": [
        {
          "internalType": "address",
          "name": "asset",
          "type": "address"
        },
        {
          "internalType": "address",
          "name": "oracleAddress",
          "type": "address"
        }
      ],
      "name": "addOracle",
      "outputs": [],
      "stateMutability": "nonpayable",
      "type": "function"
    },
    {
      "inputs": [
        {
          "internalType": "address",
          "name": "asset",
          "type": "address"
        }
      ],
      "name": "getAssetPrice",
      "outputs": [
        {
          "internalType": "uint256",
          "name": "",
          "type": "uint256"
        }
      ],
      "stateMutability": "view",
      "type": "function"
    },
    {
      "inputs": [
        {
          "internalType": "contract ILendPoolAddressesProvider",
          "name": "provider",
          "type": "address"
        }
      ],
      "name": "initialize",
      "outputs": [],
      "stateMutability": "nonpayable",
      "type": "function"
    }
  ],
  "bytecode": "0x608060405234801561001057600080fd5b50610573806100206000396000f3fe608060405234801561001057600080fd5b50600436106100415760003560e01c8063b3596f0714610046578063c4d66de81461006b578063f0ca4adb14610080575b600080fd5b61005961005436600461043c565b610093565b60405190815260200160405180910390f35b61007e61007936600461043c565b6101fc565b005b61007e61008e366004610474565b610328565b6001600160a01b03808216600090815260016020526040812054909116806101155760405162461bcd60e51b815260206004820152602a60248201527f4e46544f7261636c654765747465723a204f7261636c652061646472657373206044820152691a5cc81b9bdd081cd95d60b21b60648201526084015b60405180910390fd5b6000816001600160a01b031663feaf968c6040518163ffffffff1660e01b815260040160a06040518083038186803b15801561015057600080fd5b505afa158015610164573d6000803e3d6000fd5b505050506040513d601f19601f8201168201806040525081019061018891906104ac565b505050915050600081136101f55760405162461bcd60e51b815260206004820152602e60248201527f4e46544f7261636c654765747465723a204e465420707269636520697320302060448201526d06f72206c657373207468616e20360941b606482015260840161010c565b9392505050565b600054610100900460ff161580801561021c5750600054600160ff909116105b806102365750303b158015610236575060005460ff166001145b6102995760405162461bcd60e51b815260206004820152602e60248201527f496e697469616c697a61626c653a20636f6e747261637420697320616c72656160448201526d191e481a5b9a5d1a585b1a5e995960921b606482015260840161010c565b6000805460ff1916600117905580156102bc576000805461ff0019166101001790555b6000805462010000600160b01b031916620100006001600160a01b038516021790558015610324576000805461ff0019169055604051600181527f7f26b83ff96e1f2b6a682f133852f6798a09c465da95921460cefb38474024989060200160405180910390a15b5050565b600054604080516315d9b46f60e31b8152905133926201000090046001600160a01b03169163aecda378916004808301926020929190829003018186803b15801561037257600080fd5b505afa158015610386573d6000803e3d6000fd5b505050506040513d601f19601f820116820180604052508101906103aa9190610458565b6001600160a01b0316146040518060400160405280600381526020016203130360ec1b815250906103ee5760405162461bcd60e51b815260040161010c91906104fb565b506001600160a01b03918216600090815260016020526040902080546001600160a01b03191691909216179055565b805169ffffffffffffffffffff8116811461043757600080fd5b919050565b60006020828403121561044d578081fd5b81356101f58161054e565b600060208284031215610469578081fd5b81516101f58161054e565b60008060408385031215610486578081fd5b82356104918161054e565b915060208301356104a18161054e565b809150509250929050565b600080600080600060a086880312156104c3578081fd5b6104cc8661041d565b94506020860151935060408601519250606086015191506104ef6080870161041d565b90509295509295909350565b6000602080835283518082850152825b818110156105275785810183015185820160400152820161050b565b818111156105385783604083870101525b50601f01601f1916929092016040019392505050565b6001600160a01b038116811461056357600080fd5b5056fea164736f6c6343000804000a",
  "linkReferences": {},
  "deployedLinkReferences": {}
}