{
  "_format": "hh-sol-artifact-1",
  "contractName": "WETHGateway",
  "sourceName": "contracts/protocol/WETHGateway.sol",
  "abi": [
    {
      "anonymous": false,
      "inputs": [
        {
          "indexed": true,
          "internalType": "address",
          "name": "to",
          "type": "address"
        },
        {
          "indexed": false,
          "internalType": "uint256",
          "name": "amount",
          "type": "uint256"
        }
      ],
      "name": "EmergencyEtherTransfer",
      "type": "event"
    },
    {
      "anonymous": false,
      "inputs": [
        {
          "indexed": false,
          "internalType": "uint8",
          "name": "version",
          "type": "uint8"
        }
      ],
      "name": "Initialized",
      "type": "event"
    },
    {
      "anonymous": false,
      "inputs": [
        {
          "indexed": true,
          "internalType": "address",
          "name": "previousOwner",
          "type": "address"
        },
        {
          "indexed": true,
          "internalType": "address",
          "name": "newOwner",
          "type": "address"
        }
      ],
      "name": "OwnershipTransferred",
      "type": "event"
    },
    {
      "stateMutability": "payable",
      "type": "fallback"
    },
    {
      "inputs": [
        {
          "internalType": "address",
          "name": "nftAsset",
          "type": "address"
        },
        {
          "internalType": "bool",
          "name": "approved",
          "type": "bool"
        }
      ],
      "name": "approveNFTTransfer",
      "outputs": [],
      "stateMutability": "nonpayable",
      "type": "function"
    },
    {
      "inputs": [
        {
          "internalType": "address",
          "name": "nftAsset",
          "type": "address"
        },
        {
          "internalType": "uint256",
          "name": "nftTokenId",
          "type": "uint256"
        },
        {
          "internalType": "address",
          "name": "onBehalfOf",
          "type": "address"
        }
      ],
      "name": "auctionETH",
      "outputs": [],
      "stateMutability": "payable",
      "type": "function"
    },
    {
      "inputs": [
        {
          "internalType": "address[]",
          "name": "callers",
          "type": "address[]"
        },
        {
          "internalType": "bool",
          "name": "flag",
          "type": "bool"
        }
      ],
      "name": "authorizeCallerWhitelist",
      "outputs": [],
      "stateMutability": "nonpayable",
      "type": "function"
    },
    {
      "inputs": [
        {
          "internalType": "address[]",
          "name": "nftAssets",
          "type": "address[]"
        }
      ],
      "name": "authorizeLendPoolNFT",
      "outputs": [],
      "stateMutability": "nonpayable",
      "type": "function"
    },
    {
      "inputs": [
        {
          "internalType": "uint256[]",
          "name": "amounts",
          "type": "uint256[]"
        },
        {
          "internalType": "address[]",
          "name": "nftAssets",
          "type": "address[]"
        },
        {
          "internalType": "uint256[]",
          "name": "nftTokenIds",
          "type": "uint256[]"
        },
        {
          "internalType": "address",
          "name": "onBehalfOf",
          "type": "address"
        },
        {
          "internalType": "uint16",
          "name": "referralCode",
          "type": "uint16"
        }
      ],
      "name": "batchBorrowETH",
      "outputs": [],
      "stateMutability": "nonpayable",
      "type": "function"
    },
    {
      "inputs": [
        {
          "internalType": "address[]",
          "name": "nftAssets",
          "type": "address[]"
        },
        {
          "internalType": "uint256[]",
          "name": "nftTokenIds",
          "type": "uint256[]"
        },
        {
          "internalType": "uint256[]",
          "name": "amounts",
          "type": "uint256[]"
        }
      ],
      "name": "batchRepayETH",
      "outputs": [
        {
          "internalType": "uint256[]",
          "name": "",
          "type": "uint256[]"
        },
        {
          "internalType": "bool[]",
          "name": "",
          "type": "bool[]"
        }
      ],
      "stateMutability": "payable",
      "type": "function"
    },
    {
      "inputs": [
        {
          "internalType": "uint256",
          "name": "amount",
          "type": "uint256"
        },
        {
          "internalType": "address",
          "name": "nftAsset",
          "type": "address"
        },
        {
          "internalType": "uint256",
          "name": "nftTokenId",
          "type": "uint256"
        },
        {
          "internalType": "address",
          "name": "onBehalfOf",
          "type": "address"
        },
        {
          "internalType": "uint16",
          "name": "referralCode",
          "type": "uint16"
        }
      ],
      "name": "borrowETH",
      "outputs": [],
      "stateMutability": "nonpayable",
      "type": "function"
    },
    {
      "inputs": [
        {
          "internalType": "address",
          "name": "onBehalfOf",
          "type": "address"
        },
        {
          "internalType": "enum DataTypes.Period",
          "name": "period",
          "type": "uint8"
        },
        {
          "internalType": "uint16",
          "name": "referralCode",
          "type": "uint16"
        }
      ],
      "name": "depositETH",
      "outputs": [],
      "stateMutability": "payable",
      "type": "function"
    },
    {
      "inputs": [
        {
          "internalType": "address",
          "name": "token",
          "type": "address"
        },
        {
          "internalType": "address",
          "name": "to",
          "type": "address"
        },
        {
          "internalType": "uint256",
          "name": "amount",
          "type": "uint256"
        }
      ],
      "name": "emergencyERC20Transfer",
      "outputs": [],
      "stateMutability": "nonpayable",
      "type": "function"
    },
    {
      "inputs": [
        {
          "internalType": "address",
          "name": "token",
          "type": "address"
        },
        {
          "internalType": "address",
          "name": "to",
          "type": "address"
        },
        {
          "internalType": "uint256",
          "name": "id",
          "type": "uint256"
        }
      ],
      "name": "emergencyERC721Transfer",
      "outputs": [],
      "stateMutability": "nonpayable",
      "type": "function"
    },
    {
      "inputs": [
        {
          "internalType": "address",
          "name": "to",
          "type": "address"
        },
        {
          "internalType": "uint256",
          "name": "amount",
          "type": "uint256"
        }
      ],
      "name": "emergencyEtherTransfer",
      "outputs": [],
      "stateMutability": "nonpayable",
      "type": "function"
    },
    {
      "inputs": [
        {
          "internalType": "address",
          "name": "punks",
          "type": "address"
        },
        {
          "internalType": "address",
          "name": "to",
          "type": "address"
        },
        {
          "internalType": "uint256",
          "name": "index",
          "type": "uint256"
        }
      ],
      "name": "emergencyPunksTransfer",
      "outputs": [],
      "stateMutability": "nonpayable",
      "type": "function"
    },
    {
      "inputs": [],
      "name": "getWETHAddress",
      "outputs": [
        {
          "internalType": "address",
          "name": "",
          "type": "address"
        }
      ],
      "stateMutability": "view",
      "type": "function"
    },
    {
      "inputs": [
        {
          "internalType": "address",
          "name": "addressProvider",
          "type": "address"
        },
        {
          "internalType": "address",
          "name": "weth",
          "type": "address"
        }
      ],
      "name": "initialize",
      "outputs": [],
      "stateMutability": "nonpayable",
      "type": "function"
    },
    {
      "inputs": [
        {
          "internalType": "address",
          "name": "caller",
          "type": "address"
        }
      ],
      "name": "isCallerInWhitelist",
      "outputs": [
        {
          "internalType": "bool",
          "name": "",
          "type": "bool"
        }
      ],
      "stateMutability": "view",
      "type": "function"
    },
    {
      "inputs": [
        {
          "internalType": "address",
          "name": "nftAsset",
          "type": "address"
        },
        {
          "internalType": "uint256",
          "name": "nftTokenId",
          "type": "uint256"
        }
      ],
      "name": "liquidateETH",
      "outputs": [
        {
          "internalType": "uint256",
          "name": "",
          "type": "uint256"
        }
      ],
      "stateMutability": "payable",
      "type": "function"
    },
    {
      "inputs": [
        {
          "internalType": "address",
          "name": "nftAsset",
          "type": "address"
        },
        {
          "internalType": "uint256",
          "name": "nftTokenId",
          "type": "uint256"
        },
        {
          "internalType": "address",
          "name": "onBehalfOf",
          "type": "address"
        }
      ],
      "name": "liquidatingBuyETH",
      "outputs": [],
      "stateMutability": "payable",
      "type": "function"
    },
    {
      "inputs": [
        {
          "internalType": "address",
          "name": "",
          "type": "address"
        },
        {
          "internalType": "address",
          "name": "",
          "type": "address"
        },
        {
          "internalType": "uint256",
          "name": "",
          "type": "uint256"
        },
        {
          "internalType": "bytes",
          "name": "",
          "type": "bytes"
        }
      ],
      "name": "onERC721Received",
      "outputs": [
        {
          "internalType": "bytes4",
          "name": "",
          "type": "bytes4"
        }
      ],
      "stateMutability": "nonpayable",
      "type": "function"
    },
    {
      "inputs": [],
      "name": "owner",
      "outputs": [
        {
          "internalType": "address",
          "name": "",
          "type": "address"
        }
      ],
      "stateMutability": "view",
      "type": "function"
    },
    {
      "inputs": [
        {
          "internalType": "address",
          "name": "nftAsset",
          "type": "address"
        },
        {
          "internalType": "uint256",
          "name": "nftTokenId",
          "type": "uint256"
        },
        {
          "internalType": "uint256",
          "name": "amount",
          "type": "uint256"
        },
        {
          "internalType": "uint256",
          "name": "bidFine",
          "type": "uint256"
        }
      ],
      "name": "redeemETH",
      "outputs": [
        {
          "internalType": "uint256",
          "name": "",
          "type": "uint256"
        }
      ],
      "stateMutability": "payable",
      "type": "function"
    },
    {
      "inputs": [],
      "name": "renounceOwnership",
      "outputs": [],
      "stateMutability": "nonpayable",
      "type": "function"
    },
    {
      "inputs": [
        {
          "internalType": "address",
          "name": "nftAsset",
          "type": "address"
        },
        {
          "internalType": "uint256",
          "name": "nftTokenId",
          "type": "uint256"
        },
        {
          "internalType": "uint256",
          "name": "amount",
          "type": "uint256"
        }
      ],
      "name": "repayETH",
      "outputs": [
        {
          "internalType": "uint256",
          "name": "",
          "type": "uint256"
        },
        {
          "internalType": "bool",
          "name": "",
          "type": "bool"
        }
      ],
      "stateMutability": "payable",
      "type": "function"
    },
    {
      "inputs": [
        {
          "internalType": "address",
          "name": "newOwner",
          "type": "address"
        }
      ],
      "name": "transferOwnership",
      "outputs": [],
      "stateMutability": "nonpayable",
      "type": "function"
    },
    {
      "inputs": [
        {
          "internalType": "uint256",
          "name": "amount",
          "type": "uint256"
        },
        {
          "internalType": "address",
          "name": "to",
          "type": "address"
        },
        {
          "internalType": "enum DataTypes.Period",
          "name": "period",
          "type": "uint8"
        }
      ],
      "name": "withdrawETH",
      "outputs": [],
      "stateMutability": "nonpayable",
      "type": "function"
    },
    {
      "stateMutability": "payable",
      "type": "receive"
    }
  ],
  "bytecode": "0x608060405234801561001057600080fd5b5061389c806100206000396000f3fe60806040526004361061014f5760003560e01c8063948a7faa116100b6578063affa88171161006f578063affa881714610466578063be8e855e14610484578063ceac58c0146104a4578063d8a23320146104b7578063eed88b8d146104d7578063f2fde38b146104f7576101ab565b8063948a7faa1461039657806395d20115146103b657806395f3e238146103c957806396f06ff6146104125780639c748eff14610425578063a9f1891514610445576101ab565b8063715018a611610108578063715018a6146102d45780637194a0ea146102e957806373e7b20214610309578063839315231461031c57806389cbe6561461033c5780638da5cb5b14610364576101ab565b8063059398a0146101ea578063150b7a021461020a57806335611f7e146102535780634828766714610273578063485cc95514610293578063633d2a19146102b3576101ab565b366101ab5760ca546001600160a01b031633146101a95760405162461bcd60e51b8152602060048201526013602482015272149958d95a5d99481b9bdd08185b1b1bddd959606a1b60448201526064015b60405180910390fd5b005b60405162461bcd60e51b815260206004820152601460248201527311985b1b189858dac81b9bdd08185b1b1bddd95960621b60448201526064016101a0565b3480156101f657600080fd5b506101a9610205366004612d8b565b610517565b34801561021657600080fd5b50610235610225366004612dcb565b630a85bd0160e11b949350505050565b6040516001600160e01b031990911681526020015b60405180910390f35b34801561025f57600080fd5b506101a961026e36600461311b565b610584565b34801561027f57600080fd5b506101a961028e366004612ffe565b6109e1565b34801561029f57600080fd5b506101a96102ae366004612d53565b610ae4565b6102c66102c136600461303d565b610cad565b60405161024a929190613595565b3480156102e057600080fd5b506101a9610f8a565b3480156102f557600080fd5b506101a9610304366004612d8b565b610f9e565b6101a9610317366004612eb3565b610fd6565b34801561032857600080fd5b506101a9610337366004612d8b565b6110f3565b61034f61034a366004612f90565b611181565b6040805192835290151560208301520161024a565b34801561037057600080fd5b506065546001600160a01b03165b6040516001600160a01b03909116815260200161024a565b3480156103a257600080fd5b506101a96103b1366004613398565b6111e6565b6101a96103c4366004612f4f565b6114fe565b3480156103d557600080fd5b506104026103e4366004612d14565b6001600160a01b0316600090815260cb602052604090205460ff1690565b604051901515815260200161024a565b6101a9610420366004612f4f565b611771565b34801561043157600080fd5b506101a96104403660046133cc565b6119ba565b610458610453366004612ef7565b611bc3565b60405190815260200161024a565b34801561047257600080fd5b5060ca546001600160a01b031661037e565b34801561049057600080fd5b506101a961049f366004612e86565b611ee9565b6104586104b2366004612fc4565b611f6d565b3480156104c357600080fd5b506101a96104d23660046130d2565b6122fa565b3480156104e357600080fd5b506101a96104f2366004612ef7565b6123b4565b34801561050357600080fd5b506101a9610512366004612d14565b6124b7565b61051f612530565b6040516322dca8bb60e21b81526001600160a01b03841690638b72a2ec9061054d90859085906004016134c9565b600060405180830381600087803b15801561056757600080fd5b505af115801561057b573d6000803e3d6000fd5b50505050505050565b600160cc5414156105a75760405162461bcd60e51b81526004016101a0906136f5565b600160cc558483146105fb5760405162461bcd60e51b815260206004820152601c60248201527f696e636f6e73697374656e7420746f6b656e496473206c656e6774680000000060448201526064016101a0565b84871461064a5760405162461bcd60e51b815260206004820152601b60248201527f696e636f6e73697374656e7420616d6f756e7473206c656e677468000000000060448201526064016101a0565b6106538261258a565b600061065d6125f3565b90506000610669612675565b905060005b878110156109cf576000826001600160a01b0316631637369c8b8b858181106106a757634e487b7160e01b600052603260045260246000fd5b90506020020160208101906106bc9190612d14565b8a8a868181106106dc57634e487b7160e01b600052603260045260246000fd5b905060200201356040518363ffffffff1660e01b81526004016107009291906134c9565b60206040518083038186803b15801561071857600080fd5b505afa15801561072c573d6000803e3d6000fd5b505050506040513d601f19601f820116820180604052508101906107509190613380565b9050806108145789898381811061077757634e487b7160e01b600052603260045260246000fd5b905060200201602081019061078c9190612d14565b6001600160a01b03166342842e0e33308b8b878181106107bc57634e487b7160e01b600052603260045260246000fd5b905060200201356040518463ffffffff1660e01b81526004016107e193929190613488565b600060405180830381600087803b1580156107fb57600080fd5b505af115801561080f573d6000803e3d6000fd5b505050505b60ca546001600160a01b038086169163b6529aee91168e8e8681811061084a57634e487b7160e01b600052603260045260246000fd5b905060200201358d8d8781811061087157634e487b7160e01b600052603260045260246000fd5b90506020020160208101906108869190612d14565b8c8c888181106108a657634e487b7160e01b600052603260045260246000fd5b905060200201358b8b6040518763ffffffff1660e01b81526004016108d096959493929190613557565b600060405180830381600087803b1580156108ea57600080fd5b505af11580156108fe573d6000803e3d6000fd5b505060ca546001600160a01b03169150632e1a7d4d90508d8d8581811061093557634e487b7160e01b600052603260045260246000fd5b905060200201356040518263ffffffff1660e01b815260040161095a91815260200190565b600060405180830381600087803b15801561097457600080fd5b505af1158015610988573d6000803e3d6000fd5b505050506109bc868d8d858181106109b057634e487b7160e01b600052603260045260246000fd5b905060200201356126ba565b50806109c781613825565b91505061066e565b5050600060cc55505050505050505050565b600160cc541415610a045760405162461bcd60e51b81526004016101a0906136f5565b600160cc55610a11612530565b60005b81811015610ada57828282818110610a3c57634e487b7160e01b600052603260045260246000fd5b9050602002016020810190610a519190612d14565b6001600160a01b031663a22cb465610a676125f3565b6040516001600160e01b031960e084901b1681526001600160a01b03909116600482015260016024820152604401600060405180830381600087803b158015610aaf57600080fd5b505af1158015610ac3573d6000803e3d6000fd5b505050508080610ad290613825565b915050610a14565b5050600060cc5550565b600054610100900460ff1615808015610b045750600054600160ff909116105b80610b1e5750303b158015610b1e575060005460ff166001145b610b815760405162461bcd60e51b815260206004820152602e60248201527f496e697469616c697a61626c653a20636f6e747261637420697320616c72656160448201526d191e481a5b9a5d1a585b1a5e995960921b60648201526084016101a0565b6000805460ff191660011790558015610ba4576000805461ff0019166101001790555b610bac61276d565b610bb4612794565b60c980546001600160a01b038086166001600160a01b03199283161790925560ca8054928516929091168217905563095ea7b3610bef6125f3565b6000196040518363ffffffff1660e01b8152600401610c0f9291906134c9565b602060405180830381600087803b158015610c2957600080fd5b505af1158015610c3d573d6000803e3d6000fd5b505050506040513d601f19601f82011682018060405250810190610c6191906131d2565b508015610ca8576000805461ff0019169055604051600181527f7f26b83ff96e1f2b6a682f133852f6798a09c465da95921460cefb38474024989060200160405180910390a15b505050565b606080600160cc541415610cd35760405162461bcd60e51b81526004016101a0906136f5565b600160cc55868314610d275760405162461bcd60e51b815260206004820152601b60248201527f696e636f6e73697374656e7420616d6f756e7473206c656e677468000000000060448201526064016101a0565b868514610d765760405162461bcd60e51b815260206004820152601c60248201527f696e636f6e73697374656e7420746f6b656e496473206c656e6774680000000060448201526064016101a0565b6000876001600160401b03811115610d9e57634e487b7160e01b600052604160045260246000fd5b604051908082528060200260200182016040528015610dc7578160200160208202803683370190505b5090506000886001600160401b03811115610df257634e487b7160e01b600052604160045260246000fd5b604051908082528060200260200182016040528015610e1b578160200160208202803683370190505b5090506000805b8a811015610f5957610eb68c8c83818110610e4d57634e487b7160e01b600052603260045260246000fd5b9050602002016020810190610e629190612d14565b8b8b84818110610e8257634e487b7160e01b600052603260045260246000fd5b905060200201358a8a85818110610ea957634e487b7160e01b600052603260045260246000fd5b90506020020135856127c3565b858381518110610ed657634e487b7160e01b600052603260045260246000fd5b60200260200101858481518110610efd57634e487b7160e01b600052603260045260246000fd5b602002602001018215151515815250828152505050838181518110610f3257634e487b7160e01b600052603260045260246000fd5b602002602001015182610f4591906137ca565b915080610f5181613825565b915050610e22565b5080341115610f7557610f7533610f7083346137e2565b6126ba565b50600060cc5590999098509650505050505050565b610f92612530565b610f9c6000612aa8565b565b610fa6612530565b604051632142170760e11b81526001600160a01b038416906342842e0e9061054d90309086908690600401613488565b600160cc541415610ff95760405162461bcd60e51b81526004016101a0906136f5565b600160cc556110078361258a565b60006110116125f3565b905060ca60009054906101000a90046001600160a01b03166001600160a01b031663d0e30db0346040518263ffffffff1660e01b81526004016000604051808303818588803b15801561106357600080fd5b505af1158015611077573d6000803e3d6000fd5b505060ca546040516375d2f19560e11b81526001600160a01b03868116955063eba5e32a94506110b69350909116903490899089908990600401613517565b600060405180830381600087803b1580156110d057600080fd5b505af11580156110e4573d6000803e3d6000fd5b5050600060cc55505050505050565b6110fb612530565b60405163a9059cbb60e01b81526001600160a01b0384169063a9059cbb9061112990859085906004016134c9565b602060405180830381600087803b15801561114357600080fd5b505af1158015611157573d6000803e3d6000fd5b505050506040513d601f19601f8201168201806040525081019061117b91906131d2565b50505050565b600080600160cc5414156111a75760405162461bcd60e51b81526004016101a0906136f5565b600160cc556000806111bb878787846127c3565b91509150813411156111d5576111d533610f7084346137e2565b600060cc5590969095509350505050565b600160cc5414156112095760405162461bcd60e51b81526004016101a0906136f5565b600160cc556112178261258a565b600081600381111561123957634e487b7160e01b600052602160045260246000fd5b905060006112456125f3565b60ca546040516335ea6a7560e01b81526001600160a01b039182166004820152919250600091908316906335ea6a75906024016102606040518083038186803b15801561129157600080fd5b505afa1580156112a5573d6000803e3d6000fd5b505050506040513d601f19601f820116820180604052508101906112c991906132af565b60c001518360ff16600481106112ef57634e487b7160e01b600052603260045260246000fd5b602002015190506000816001600160a01b0316636741204533876040518363ffffffff1660e01b81526004016113269291906134ac565b602060405180830381600087803b15801561134057600080fd5b505af1158015611354573d6000803e3d6000fd5b505050506040513d601f19601f820116820180604052508101906113789190613380565b9050866000198114156113885750805b6040516323b872dd60e01b81526001600160a01b038416906323b872dd906113b890339030908690600401613488565b602060405180830381600087803b1580156113d257600080fd5b505af11580156113e6573d6000803e3d6000fd5b505050506040513d601f19601f8201168201806040525081019061140a91906131d2565b5060ca54604051635eac01df60e01b81526001600160a01b0386811692635eac01df926114439290911690859030908c906004016134e2565b602060405180830381600087803b15801561145d57600080fd5b505af1158015611471573d6000803e3d6000fd5b505050506040513d601f19601f820116820180604052508101906114959190613380565b5060ca54604051632e1a7d4d60e01b8152600481018390526001600160a01b0390911690632e1a7d4d90602401600060405180830381600087803b1580156114dc57600080fd5b505af11580156114f0573d6000803e3d6000fd5b505050506110e487826126ba565b600160cc5414156115215760405162461bcd60e51b81526004016101a0906136f5565b600160cc5561152f8161258a565b60006115396125f3565b90506000611545612675565b90506000816001600160a01b0316631637369c87876040518363ffffffff1660e01b81526004016115779291906134c9565b60206040518083038186803b15801561158f57600080fd5b505afa1580156115a3573d6000803e3d6000fd5b505050506040513d601f19601f820116820180604052508101906115c79190613380565b9050600081116115e95760405162461bcd60e51b81526004016101a090613673565b604051632820036560e11b8152600481018290526000906001600160a01b0384169063504006ca906024016101806040518083038186803b15801561162d57600080fd5b505afa158015611641573d6000803e3d6000fd5b505050506040513d601f19601f8201168201806040525081019061166591906131ee565b60ca5460a08201519192506001600160a01b0391821691161461169a5760405162461bcd60e51b81526004016101a090613644565b60ca60009054906101000a90046001600160a01b03166001600160a01b031663d0e30db0346040518263ffffffff1660e01b81526004016000604051808303818588803b1580156116ea57600080fd5b505af11580156116fe573d6000803e3d6000fd5b505060405163a4c0166b60e01b81526001600160a01b038b81166004830152602482018b905234604483015289811660648301528816935063a4c0166b925060840190505b600060405180830381600087803b15801561175d57600080fd5b505af11580156109cf573d6000803e3d6000fd5b600160cc5414156117945760405162461bcd60e51b81526004016101a0906136f5565b600160cc556117a28161258a565b60006117ac6125f3565b905060006117b8612675565b90506000816001600160a01b0316631637369c87876040518363ffffffff1660e01b81526004016117ea9291906134c9565b60206040518083038186803b15801561180257600080fd5b505afa158015611816573d6000803e3d6000fd5b505050506040513d601f19601f8201168201806040525081019061183a9190613380565b90506000811161185c5760405162461bcd60e51b81526004016101a090613673565b604051632820036560e11b8152600481018290526000906001600160a01b0384169063504006ca906024016101806040518083038186803b1580156118a057600080fd5b505afa1580156118b4573d6000803e3d6000fd5b505050506040513d601f19601f820116820180604052508101906118d891906131ee565b60ca5460a08201519192506001600160a01b0391821691161461190d5760405162461bcd60e51b81526004016101a090613644565b60ca60009054906101000a90046001600160a01b03166001600160a01b031663d0e30db0346040518263ffffffff1660e01b81526004016000604051808303818588803b15801561195d57600080fd5b505af1158015611971573d6000803e3d6000fd5b505060405163f4823c5760e01b81526001600160a01b038b81166004830152602482018b905234604483015289811660648301528816935063f4823c5792506084019050611743565b600160cc5414156119dd5760405162461bcd60e51b81526004016101a0906136f5565b600160cc556119eb8261258a565b60006119f56125f3565b90506000611a01612675565b90506000816001600160a01b0316631637369c88886040518363ffffffff1660e01b8152600401611a339291906134c9565b60206040518083038186803b158015611a4b57600080fd5b505afa158015611a5f573d6000803e3d6000fd5b505050506040513d601f19601f82011682018060405250810190611a839190613380565b905080611aed57604051632142170760e11b81526001600160a01b038816906342842e0e90611aba90339030908b90600401613488565b600060405180830381600087803b158015611ad457600080fd5b505af1158015611ae8573d6000803e3d6000fd5b505050505b60ca54604051635b294d7760e11b81526001600160a01b038581169263b6529aee92611b2992909116908c908c908c908c908c90600401613557565b600060405180830381600087803b158015611b4357600080fd5b505af1158015611b57573d6000803e3d6000fd5b505060ca54604051632e1a7d4d60e01b8152600481018c90526001600160a01b039091169250632e1a7d4d9150602401600060405180830381600087803b158015611ba157600080fd5b505af1158015611bb5573d6000803e3d6000fd5b505050506110e485896126ba565b6000600160cc541415611be85760405162461bcd60e51b81526004016101a0906136f5565b600160cc556000611bf76125f3565b90506000611c03612675565b90506000816001600160a01b0316631637369c87876040518363ffffffff1660e01b8152600401611c359291906134c9565b60206040518083038186803b158015611c4d57600080fd5b505afa158015611c61573d6000803e3d6000fd5b505050506040513d601f19601f82011682018060405250810190611c859190613380565b905060008111611ca75760405162461bcd60e51b81526004016101a090613673565b604051632820036560e11b8152600481018290526000906001600160a01b0384169063504006ca906024016101806040518083038186803b158015611ceb57600080fd5b505afa158015611cff573d6000803e3d6000fd5b505050506040513d601f19601f82011682018060405250810190611d2391906131ee565b60ca5460a08201519192506001600160a01b03918216911614611d585760405162461bcd60e51b81526004016101a090613644565b3415611dc85760ca60009054906101000a90046001600160a01b03166001600160a01b031663d0e30db0346040518263ffffffff1660e01b81526004016000604051808303818588803b158015611dae57600080fd5b505af1158015611dc2573d6000803e3d6000fd5b50505050505b6040516301c40a1760e21b81526001600160a01b0388811660048301526024820188905234604483015260009190861690630710285c90606401602060405180830381600087803b158015611e1c57600080fd5b505af1158015611e30573d6000803e3d6000fd5b505050506040513d601f19601f82011682018060405250810190611e549190613380565b905080341115611ed95760ca546001600160a01b0316632e1a7d4d611e7983346137e2565b6040518263ffffffff1660e01b8152600401611e9791815260200190565b600060405180830381600087803b158015611eb157600080fd5b505af1158015611ec5573d6000803e3d6000fd5b50505050611ed9338234610f7091906137e2565b600060cc55979650505050505050565b611ef1612530565b816001600160a01b031663a22cb465611f086125f3565b6040516001600160e01b031960e084901b1681526001600160a01b0390911660048201528315156024820152604401600060405180830381600087803b158015611f5157600080fd5b505af1158015611f65573d6000803e3d6000fd5b505050505050565b6000600160cc541415611f925760405162461bcd60e51b81526004016101a0906136f5565b600160cc556000611fa16125f3565b90506000611fad612675565b90506000816001600160a01b0316631637369c89896040518363ffffffff1660e01b8152600401611fdf9291906134c9565b60206040518083038186803b158015611ff757600080fd5b505afa15801561200b573d6000803e3d6000fd5b505050506040513d601f19601f8201168201806040525081019061202f9190613380565b9050600081116120515760405162461bcd60e51b81526004016101a090613673565b604051632820036560e11b8152600481018290526000906001600160a01b0384169063504006ca906024016101806040518083038186803b15801561209557600080fd5b505afa1580156120a9573d6000803e3d6000fd5b505050506040513d601f19601f820116820180604052508101906120cd91906131ee565b60ca5460a08201519192506001600160a01b039182169116146121025760405162461bcd60e51b81526004016101a090613644565b61210c86886137ca565b3410156121675760405162461bcd60e51b8152602060048201526024808201527f6d73672e76616c7565206973206c657373207468616e2072656465656d20616d6044820152631bdd5b9d60e21b60648201526084016101a0565b60ca60009054906101000a90046001600160a01b03166001600160a01b031663d0e30db0346040518263ffffffff1660e01b81526004016000604051808303818588803b1580156121b757600080fd5b505af11580156121cb573d6000803e3d6000fd5b505060405163ea2092f360e01b81526001600160a01b038d81166004830152602482018d9052604482018c9052606482018b9052600094508816925063ea2092f39150608401602060405180830381600087803b15801561222b57600080fd5b505af115801561223f573d6000803e3d6000fd5b505050506040513d601f19601f820116820180604052508101906122639190613380565b9050803411156122e85760ca546001600160a01b0316632e1a7d4d61228883346137e2565b6040518263ffffffff1660e01b81526004016122a691815260200190565b600060405180830381600087803b1580156122c057600080fd5b505af11580156122d4573d6000803e3d6000fd5b505050506122e8338234610f7091906137e2565b600060cc559998505050505050505050565b600160cc54141561231d5760405162461bcd60e51b81526004016101a0906136f5565b600160cc5561232a612530565b60005b828110156123a9578160cb600086868581811061235a57634e487b7160e01b600052603260045260246000fd5b905060200201602081019061236f9190612d14565b6001600160a01b031681526020810191909152604001600020805460ff1916911515919091179055806123a181613825565b91505061232d565b5050600060cc555050565b6123bc612530565b604080516000808252602082019092526001600160a01b0384169083906040516123e6919061346c565b60006040518083038185875af1925050503d8060008114612423576040519150601f19603f3d011682016040523d82523d6000602084013e612428565b606091505b505090508061246f5760405162461bcd60e51b815260206004820152601360248201527211551217d514905394d1915497d19052531151606a1b60448201526064016101a0565b826001600160a01b03167f71c3b69ecd4f336ba362d69703465c0d62d5041f2bbd97d22c847659b60c05b9836040516124aa91815260200190565b60405180910390a2505050565b6124bf612530565b6001600160a01b0381166125245760405162461bcd60e51b815260206004820152602660248201527f4f776e61626c653a206e6577206f776e657220697320746865207a65726f206160448201526564647265737360d01b60648201526084016101a0565b61252d81612aa8565b50565b6065546001600160a01b03163314610f9c5760405162461bcd60e51b815260206004820181905260248201527f4f776e61626c653a2063616c6c6572206973206e6f7420746865206f776e657260448201526064016101a0565b6001600160a01b0381163314806125b5575033600090815260cb602052604090205460ff1615156001145b604051806040016040528060038152602001620c4c0d60ea1b815250906125ef5760405162461bcd60e51b81526004016101a09190613611565b5050565b60c954604080516311ead9ef60e31b815290516000926001600160a01b031691638f56cf78916004808301926020929190829003018186803b15801561263857600080fd5b505afa15801561264c573d6000803e3d6000fd5b505050506040513d601f19601f820116820180604052508101906126709190612d37565b905090565b60c9546040805163035e6e4d60e41b815290516000926001600160a01b0316916335e6e4d0916004808301926020929190829003018186803b15801561263857600080fd5b604080516000808252602082019092526001600160a01b0384169083906040516126e4919061346c565b60006040518083038185875af1925050503d8060008114612721576040519150601f19603f3d011682016040523d82523d6000602084013e612726565b606091505b5050905080610ca85760405162461bcd60e51b815260206004820152601360248201527211551217d514905394d1915497d19052531151606a1b60448201526064016101a0565b600054610100900460ff16610f9c5760405162461bcd60e51b81526004016101a0906136aa565b600054610100900460ff166127bb5760405162461bcd60e51b81526004016101a0906136aa565b610f9c612afa565b60008060006127d06125f3565b905060006127dc612675565b90506000816001600160a01b0316631637369c8a8a6040518363ffffffff1660e01b815260040161280e9291906134c9565b60206040518083038186803b15801561282657600080fd5b505afa15801561283a573d6000803e3d6000fd5b505050506040513d601f19601f8201168201806040525081019061285e9190613380565b9050600081116128805760405162461bcd60e51b81526004016101a090613673565b604051632bf25fe760e11b81526004810182905260009081906001600160a01b038516906357e4bfce90602401604080518083038186803b1580156128c457600080fd5b505afa1580156128d8573d6000803e3d6000fd5b505050506040513d601f19601f820116820180604052508101906128fc9190612f22565b60ca5491935091506001600160a01b0380841691161461292e5760405162461bcd60e51b81526004016101a090613644565b808910156129395750875b61294381896137ca565b34101561299e5760405162461bcd60e51b815260206004820152602360248201527f6d73672e76616c7565206973206c657373207468616e20726570617920616d6f6044820152621d5b9d60ea1b60648201526084016101a0565b60ca60009054906101000a90046001600160a01b03166001600160a01b031663d0e30db0826040518263ffffffff1660e01b81526004016000604051808303818588803b1580156129ee57600080fd5b505af1158015612a02573d6000803e3d6000fd5b5050604051638cd2e0c760e01b81526001600160a01b038f81166004830152602482018f9052604482018e90526000945084935089169150638cd2e0c7906064016040805180830381600087803b158015612a5c57600080fd5b505af1158015612a70573d6000803e3d6000fd5b505050506040513d601f19601f82011682018060405250810190612a949190613426565b909e909d509b505050505050505050505050565b606580546001600160a01b038381166001600160a01b0319831681179093556040519116919082907f8be0079c531659141344cd1fd0a4f28419497f9722a3daafe3b4186f6b6457e090600090a35050565b600054610100900460ff16612b215760405162461bcd60e51b81526004016101a0906136aa565b610f9c600054610100900460ff16612b4b5760405162461bcd60e51b81526004016101a0906136aa565b610f9c33612aa8565b8051612b5f8161386c565b919050565b600082601f830112612b74578081fd5b612b7c613778565b808385608086011115612b8d578384fd5b835b6004811015612bb8578151612ba38161386c565b84526020938401939190910190600101612b8f565b509095945050505050565b60008083601f840112612bd4578182fd5b5081356001600160401b03811115612bea578182fd5b6020830191508360208260051b8501011115612c0557600080fd5b9250929050565b600082601f830112612c1c578081fd5b612c24613778565b808385608086011115612c35578384fd5b835b6004811015612bb857612c4982612cbc565b84526020938401939190910190600101612c37565b805160068110612b5f57600080fd5b803560048110612b5f57600080fd5b600060208284031215612c8d578081fd5b604051602081018181106001600160401b0382111715612caf57612caf613856565b6040529151825250919050565b80516fffffffffffffffffffffffffffffffff81168114612b5f57600080fd5b803561ffff81168114612b5f57600080fd5b805164ffffffffff81168114612b5f57600080fd5b805160ff81168114612b5f57600080fd5b600060208284031215612d25578081fd5b8135612d308161386c565b9392505050565b600060208284031215612d48578081fd5b8151612d308161386c565b60008060408385031215612d65578081fd5b8235612d708161386c565b91506020830135612d808161386c565b809150509250929050565b600080600060608486031215612d9f578081fd5b8335612daa8161386c565b92506020840135612dba8161386c565b929592945050506040919091013590565b60008060008060808587031215612de0578182fd5b8435612deb8161386c565b9350602085810135612dfc8161386c565b93506040860135925060608601356001600160401b0380821115612e1e578384fd5b818801915088601f830112612e31578384fd5b813581811115612e4357612e43613856565b612e55601f8201601f1916850161379a565b91508082528984828501011115612e6a578485fd5b8084840185840137810190920192909252939692955090935050565b60008060408385031215612e98578182fd5b8235612ea38161386c565b91506020830135612d8081613881565b600080600060608486031215612ec7578081fd5b8335612ed28161386c565b9250612ee060208501612c6d565b9150612eee60408501612cdc565b90509250925092565b60008060408385031215612f09578182fd5b8235612f148161386c565b946020939093013593505050565b60008060408385031215612f34578182fd5b8251612f3f8161386c565b6020939093015192949293505050565b600080600060608486031215612f63578081fd5b8335612f6e8161386c565b9250602084013591506040840135612f858161386c565b809150509250925092565b600080600060608486031215612fa4578081fd5b8335612faf8161386c565b95602085013595506040909401359392505050565b60008060008060808587031215612fd9578182fd5b8435612fe48161386c565b966020860135965060408601359560600135945092505050565b60008060208385031215613010578182fd5b82356001600160401b03811115613025578283fd5b61303185828601612bc3565b90969095509350505050565b60008060008060008060608789031215613055578384fd5b86356001600160401b038082111561306b578586fd5b6130778a838b01612bc3565b9098509650602089013591508082111561308f578586fd5b61309b8a838b01612bc3565b909650945060408901359150808211156130b3578384fd5b506130c089828a01612bc3565b979a9699509497509295939492505050565b6000806000604084860312156130e6578081fd5b83356001600160401b038111156130fb578182fd5b61310786828701612bc3565b9094509250506020840135612f8581613881565b60008060008060008060008060a0898b031215613136578586fd5b88356001600160401b038082111561314c578788fd5b6131588c838d01612bc3565b909a50985060208b0135915080821115613170578788fd5b61317c8c838d01612bc3565b909850965060408b0135915080821115613194578384fd5b506131a18b828c01612bc3565b90955093505060608901356131b58161386c565b91506131c360808a01612cdc565b90509295985092959890939650565b6000602082840312156131e3578081fd5b8151612d3081613881565b60006101808284031215613200578081fd5b61320861372c565b8251815261321860208401612c5e565b602082015261322960408401612b54565b604082015261323a60608401612b54565b60608201526080830151608082015261325560a08401612b54565b60a082015260c083015160c082015260e083015160e082015261010061327c818501612b54565b90820152610120838101519082015261014080840151908201526101606132a4818501612b54565b908201529392505050565b600061026082840312156132c1578081fd5b6132c9613755565b6132d38484612c7c565b81526132e28460208501612c0c565b60208201526132f360a08401612cbc565b60408201526133058460c08501612c0c565b60608201526133176101408401612cbc565b60808201526133296101608401612cee565b60a082015261333c846101808501612b64565b60c082015261334e6102008401612b54565b60e08201526133606102208401612b54565b6101008201526133736102408401612d03565b6101208201529392505050565b600060208284031215613391578081fd5b5051919050565b6000806000606084860312156133ac578081fd5b8335925060208401356133be8161386c565b9150612eee60408501612c6d565b600080600080600060a086880312156133e3578283fd5b8535945060208601356133f58161386c565b935060408601359250606086013561340c8161386c565b915061341a60808701612cdc565b90509295509295909350565b60008060408385031215613438578182fd5b825191506020830151612d8081613881565b6004811061346857634e487b7160e01b600052602160045260246000fd5b9052565b6000825161347e8184602087016137f9565b9190910192915050565b6001600160a01b039384168152919092166020820152604081019190915260600190565b6001600160a01b038316815260408101612d30602083018461344a565b6001600160a01b03929092168252602082015260400190565b6001600160a01b03858116825260208201859052831660408201526080810161350e606083018461344a565b95945050505050565b6001600160a01b038681168252602082018690528416604082015260a08101613543606083018561344a565b61ffff831660808301529695505050505050565b6001600160a01b039687168152602081019590955292851660408501526060840191909152909216608082015261ffff90911660a082015260c00190565b604080825283519082018190526000906020906060840190828701845b828110156135ce578151845292840192908401906001016135b2565b50505083810382850152845180825285830191830190845b818110156136045783511515835292840192918401916001016135e6565b5090979650505050505050565b60208152600082518060208401526136308160408501602087016137f9565b601f01601f19169190910160400192915050565b6020808252601590820152740d8dec2dc40e4cae6cae4ecca40dcdee840ae8aa89605b1b604082015260600190565b6020808252601c908201527f636f6c6c61746572616c206c6f616e206964206e6f7420657869737400000000604082015260600190565b6020808252602b908201527f496e697469616c697a61626c653a20636f6e7472616374206973206e6f74206960408201526a6e697469616c697a696e6760a81b606082015260800190565b6020808252601f908201527f5265656e7472616e637947756172643a207265656e7472616e742063616c6c00604082015260600190565b60405161018081016001600160401b038111828210171561374f5761374f613856565b60405290565b60405161014081016001600160401b038111828210171561374f5761374f613856565b604051608081016001600160401b038111828210171561374f5761374f613856565b604051601f8201601f191681016001600160401b03811182821017156137c2576137c2613856565b604052919050565b600082198211156137dd576137dd613840565b500190565b6000828210156137f4576137f4613840565b500390565b60005b838110156138145781810151838201526020016137fc565b8381111561117b5750506000910152565b600060001982141561383957613839613840565b5060010190565b634e487b7160e01b600052601160045260246000fd5b634e487b7160e01b600052604160045260246000fd5b6001600160a01b038116811461252d57600080fd5b801515811461252d57600080fdfea164736f6c6343000804000a",
  "linkReferences": {},
  "deployedLinkReferences": {}
}